:100000000C9451010C9482010C9482010C94820195
:100010000C9482010C9482010C9482010C94820154
:100020000C9482010C9482010C9482010C94820144
:100030000C9482010C9482010C9482010C94820134
:100040000C9482010C9482010C9482010C94820124
:100050000C9482010C9482010C9482010C9485080A
:100060000C9482010C944F080C9425080C94820186
:100070000C9482010C9482010C9482010C948201F4
:100080000C9482010C9482010C9482010C948201E4
:100090000C9482010C9482010C9482010C94CF0880
:1000A0000C9482010C9482010C9482010C948201C4
:1000B0000C9482010C9482010C9482010C948201B4
:1000C0000C9482010C9482010C9482010C948201A4
:1000D0000C9482010C9482010C9482010C94820194
:1000E0000C9482010C948A030C940E040C94AB03C0
:1000F0000C94AF020C9419020C94DD030C946B0366
:100100000C9479030C94A2030C9469020C949E0342
:100110000C9477020C9486030C9480030C947D035A
:100120000C9446020C942A070C9475030C94170245
:100130000C94F3090C94A6030C944E040C94FC0547
:100140000C9425060C9486060C9418020C940B064D
:100150000C94B0030C9494030C9455020C94FC0280
:100160000C94AC030C9452060C941E060C94900351
:100170000C9471030C94FB050C94AD040C9498033F
:1001800000002100240027002A002D003000330049
:1001900001010000040107010A01000022002500FE
:1001A00028002B002E003100340002010000050160
:1001B00008010B01000020002300260029002C006C
:1001C0002F003200000100000301060109010505AE
:1001D0000505070508080808020202020A0A0808BD
:1001E00004040404010101010101010103030303EB
:1001F00003030303040707070C0C0C0C0C0C0C0C7A
:100200000202020206060606060606060B0B0B0B8A
:100210000B0B0B0B010210202008081020401020AF
:1002200040800201020108040201010204081020BA
:1002300040808040201008040201800402018040B8
:100240002010080402010804020101020408102021
:100250004080010204081020408000000A0B0209BF
:100260000C0D0E0807030401000000000000000050
:10027000000000000000000000000000000000007E
:10028000000000000000121110000000000000003B
:10029000000000000000000000000000000000005E
:1002A000F30911241FBECFEFD1E2DEBFCDBF00E0C6
:1002B0000CBF13E0A0E0B2E0EAECF4E200E00BBF18
:1002C00002C007900D92AC33B107D9F725E0ACE33B
:1002D000B3E001C01D92A034B207E1F711E0C1E51F
:1002E000D1E000E006C021970109802FFE010E94A5
:1002F0004112C035D10780E00807A9F70E94670BBB
:100300000C9463120C94000096E0899FD001112494
:10031000A754BB4F90967C936E935F9791E0919614
:100320009C939197E0912605F091270590912505E2
:10033000992339F0309751F0811108C08091D5048C
:100340001994309719F05C968C91FACF0895CF925A
:10035000DF92EF92FF920F931F9396E0899FF00137
:100360001124E754FB4F11A2278D30A12130310514
:1003700051F178F02230310509F451C023303105B4
:1003800009F452C01F910F91FF90EF90DF90CF9032
:1003900008956623B9F361E070E00E9484012FB7ED
:1003A000F8948091BC039091BD03A091BE03B091DD
:1003B000BF032FBF8093110590931205A0931305DF
:1003C000B0931405DFCF9FB7F894C090BC03D090D2
:1003D000BD03E090BE03F090BF039FBF00911105E5
:1003E000109112052091130530911405C01AD10AFD
:1003F000E20AF30A009123051091240530E020E081
:100400000C151D052E053F0550F462E070E01F91AC
:100410000F91FF90EF90DF90CF900C9484016111C9
:10042000B1CF63E070E0F3CF70E060E0F0CF08950B
:100430000895AF92BF92CF92DF92EF92FF920F9307
:100440001F93CF93DF936C017B018B01040F151F6A
:10045000EB015E01AE18BF08C017D10759F06991D2
:10046000D601ED91FC910190F081E02DC601199526
:10047000892B79F7C501DF91CF911F910F91FF90E3
:10048000EF90DF90CF90BF90AF900895FC01538D17
:10049000448D252F30E0842F90E0821B930B54175E
:1004A00010F0CF96089501970895FC01918D828DEB
:1004B000981761F0A28DAE0FBF2FB11D5D968C9184
:1004C000928D9F5F9F73928F90E008958FEF9FEFC3
:1004D0000895FC01918D828D981731F0828DE80F7F
:1004E000F11D858D90E008958FEF9FEF0895FC0139
:1004F000918D228D892F90E0805C9F4F821B910906
:100500008F739927089580E194E00E94770221E09B
:10051000892B09F420E0822F0895FC01A48DA80FF7
:10052000B92FB11DA35ABF4F2C91848D90E0019635
:100530008F739927848FA689B7892C93A089B18955
:100540008C91837080648C93938D848D981306C0F6
:100550000288F389E02D80818F7D80830895EF925A
:10056000FF920F931F93CF93DF93EC0181E0888F6D
:100570009B8D8C8D98131AC0E889F989808185FF3D
:1005800015C09FB7F894EE89FF896083E889F989DF
:1005900080818370806480839FBF81E090E0DF91E1
:1005A000CF911F910F91FF90EF900895F62E0B8D34
:1005B00010E00F5F1F4F0F731127E02E8C8D8E11EF
:1005C0000CC00FB607FCFACFE889F989808185FF56
:1005D000F5CFCE010E948D02F1CFEB8DEC0FFD2FF8
:1005E000F11DE35AFF4FF0829FB7F8940B8FEA8911
:1005F000FB8980818062CFCFCF93DF93EC01888D20
:100600008823B9F0AA89BB89E889F9898C9185FD8D
:1006100003C0808186FD0DC00FB607FCF7CF8C911B
:1006200085FFF2CF808185FFEDCFCE010E948D0244
:10063000E9CFDF91CF91089580E090E0892B29F0F8
:100640000E94830281110E94000080E090E0892BCB
:1006500049F080E090E0892B29F00E940000811190
:100660000E94000080E090E0892B49F080E090E05B
:10067000892B29F00E94000081110E94000080E077
:1006800090E0892B49F080E090E0892B29F00E94CE
:10069000000081110C94000008958150823108F00F
:1006A0005AC0E82FF0E08827E75AFC4F8F4F0C9490
:1006B000411279037D036B0371037503AB03800360
:1006C00086038A039003940398039E03A203AB035B
:1006D000A603AC03B003809180008F7780938000E5
:1006E0000895809180008F7DF9CF80918000877F71
:1006F000F5CF84B58F7784BD089584B58F7DFBCF0A
:100700008091B0008F778093B00008958091B00001
:100710008F7DF9CF809190008F778093900008951E
:10072000809190008F7DF9CF80919000877FF5CFE9
:100730008091A0008F778093A00008958091A00001
:100740008F7DF9CF8091A000877FF5CF8091200128
:100750008F77809320010895809120018F7DF9CFBC
:1007600080912001877FF5CFCF93DF93282F30E052
:10077000F901E65AFD4F8491F901EC5EFD4FD491E9
:10078000F901E253FE4FC491CC23A1F081110E94E4
:100790004D03EC2FF0E0EE0FFF1FEC54FE4FA59140
:1007A000B491EC91ED2381E090E009F480E0DF91D9
:1007B000CF91089580E090E0FACF862F0C94B40397
:1007C0001F93CF93DF93282F30E0F901E65AFD4FB6
:1007D0008491F901EC5EFD4FD491F901E253FE4F93
:1007E000C491CC23A9F0162F81110E944D03EC2F48
:1007F000F0E0EE0FFF1FE656FE4FA591B4918FB7C4
:10080000F894EC91111108C0D095DE23DC938FBFD2
:10081000DF91CF911F910895DE2BF8CF862F642FA3
:100820000C94E003CF93DF9390E0FC01EC5EFD4F6E
:10083000249182539E4FFC0184918823C9F090E05B
:10084000880F991FFC01E058FE4FA591B491FC015F
:10085000E656FE4FC591D49161110DC09FB7F89433
:100860008C91209582238C938881282328839FBF95
:10087000DF91CF910895623051F49FB7F8943C9185
:10088000822F809583238C93E8812E2BEFCF8FB717
:10089000F894EC912E2B2C938FBFEACF862F642FE8
:1008A0000C9412043FB7F8948091810390918203D5
:1008B000A0918303B091840326B5A89B05C02F3F68
:1008C00019F00196A11DB11D3FBFBA2FA92F982F76
:1008D0008827BC01CD01620F711D811D911D42E071
:1008E000660F771F881F991F4A95D1F708958F9239
:1008F0009F92AF92BF92CF92DF92EF92FF920E94AF
:1009000052044B015C0188EEC82E83E0D82EE12C06
:10091000F12C0E945204681979098A099B09683EE2
:10092000734081059105A8F321E0C21AD108E108BE
:10093000F10888EE880E83E0981EA11CB11CC1143A
:10094000D104E104F10429F7FF90EF90DF90CF90FC
:10095000BF90AF909F908F900895089520915D0370
:10096000260F3327331F21323105ECF42091E603A3
:10097000FC0190E080E0243069F082E00895A091CD
:100980005D032191AC01435C5C4FA40FB52FB11DF9
:100990002C930196861798F380915D03680F6093FE
:1009A0005D0380E0089581E008951092E60381E000
:1009B0008093E5031092C00361E084E10E94E003AC
:1009C00061E085E10E94E003E9EBF0E080818E7F49
:1009D000808380818D7F808388E48093B80085E464
:1009E0008093BC000895CF93DF9391E090933C03F4
:1009F0008823B9F0C091B800D091BA008091BC00B2
:100A00008A7B8093BC0060E084E10E94E00360E0A8
:100A100085E10E94E0030E94D504D093BA00C09300
:100A2000B800DF91CF910895CF92DF92EF92FF92BD
:100A30000F931F93CF93DF93D0910F0481E0D132B6
:100A400008F09CC0C0910E040E9452046B017C010E
:100A50008091E60381116CC082E08093E60381E01F
:100A60008093E5038FEF8093E4031092E303D09328
:100A7000E203AEEEB3E0E2ECF3E080E0D8138DC029
:100A80001092C1038091C103CC0FC82BC093C10346
:100A90008091C003813009F084C01092C0030E948D
:100AA00052046B017C018091C1038093BB00809153
:100AB000E8039091E903A091EA03B091EB03892B3D
:100AC0008A2B8B2BA1F00E9452040091E803109115
:100AD000E9032091EA033091EB036C197D098E093B
:100AE0009F09061717072807390708F442C08091A5
:100AF000BC0083FDD8CF85EC8093BC000E945204DB
:100B00006B017C018091E603823009F44CC0809136
:100B1000E4038F3F09F469C08091E403803209F453
:100B200066C08091E403803309F463C084E026C08A
:100B30008091E8039091E903A091EA03B091EB035F
:100B4000892B8A2B8B2B09F483CF0E9452040091AE
:100B5000E8031091E9032091EA033091EB036C194B
:100B60007D098E099F09061717072807390708F01E
:100B70006FCF8091E7030E94F30485E01092ED03AC
:100B800010920F041092EC03DF91CF911F910F91FF
:100B9000FF90EF90DF90CF9008959D9191938F5F9C
:100BA0006DCF85EEA9CF8091E8039091E903A091E4
:100BB000EA03B091EB03892B8A2B8B2B09F4A2CF8C
:100BC0000E9452040091E8031091E9032091EA0386
:100BD0003091EB036C197D098E099F0906171707E1
:100BE0002807390708F08ECFC4CF80E0C7CF82E056
:100BF000C5CF83E0C3CF0895E0918A038091890334
:100C0000E81730F4F0E0E557FC4F808190E008955C
:100C10008FEF9FEF089590918A03809189032FEFC2
:100C20003FEF981748F4E92FF0E0E557FC4F20819B
:100C300030E09F5F90938A03C901089580918903F2
:100C400090918A03891B990B0895CF92DF92EF92BE
:100C5000FF920F931F93CF93DF937C01CB018A0107
:100C60002091EC03222389F0EB016B01C40ED51E09
:100C7000CC15DD0569F06991D701ED91FC910190EA
:100C8000F081E02DC7011995F3CF642F0E94AE04C7
:100C9000C801DF91CF911F910F91FF90EF90DF90EE
:100CA000CF900895CF93DF931F92CDB7DEB76983BE
:100CB0002091EC032223F9F020910F04203258F008
:100CC00021E030E0FC013383228390E080E00F904C
:100CD000DF91CF9108958091ED03E82FF0E0E2518C
:100CE000FC4F998190838F5F8093ED0380930F0475
:100CF00081E090E0ECCF61E0CE0101960E94AE046D
:100D0000F7CF682F8DEA94E00C94520690E080E0D3
:100D10000895CF93DF93EC0160E08E810E94E003A1
:100D200061E08E810E94E00360E08E810E94E0031A
:100D30008BE891E00197F1F7DF91CF910895CF9281
:100D4000DF92EF92FF920F931F93CF93DF936C018B
:100D50007C0187E0E80EF11CD0E0C0E0062F10E037
:100D6000B8010C2E02C0759567950A94E2F7617080
:100D7000F70181917F010E94E0032196C430D105E3
:100D800079F7C601DF91CF911F910F91FF90EF90FE
:100D9000DF90CF900C948906CF92DF92EF92FF9272
:100DA0000F931F93CF93DF93EC01F62E642F8C816A
:100DB0000E94E0038D818F3F19F060E00E94E00304
:100DC0000F2D10E08F8584FF25C06E0187E0C80ECF
:100DD000D11CF12CE12CB8010E2C02C07595679541
:100DE0000A94E2F76170F60181916F010E94E003BD
:100DF000FFEFEF1AFF0A88E0E816F10461F7CE0171
:100E0000DF91CF911F910F91FF90EF90DF90CF90E6
:100E10000C948906B80184E0759567958A95E1F789
:100E2000CE010E949F066F2DCE01DF91CF911F91C1
:100E30000F91FF90EF90DF90CF900C949F0640E0D1
:100E400061E088E295E00E94CC068BE39FE1019788
:100E5000F1F7089541E00E94CC0681E090E008950A
:100E6000FB0101900020E9F73197AF01461B570BBA
:100E7000DC01ED91FC910280F381E02D19944F92F9
:100E80005F926F927F92AF92BF92CF92DF92EF927A
:100E9000FF920F931F93CF93DF93CDB7DEB7A19748
:100EA0000FB6F894DEBF0FBECDBF5C016A017B01B7
:100EB000F7FE47C0DC01ED91FC910190F081E02D3F
:100EC0006DE219958C0122273327A9012C193D09C0
:100ED0004E095F0919A2FE01B1967F019AE0492EE1
:100EE000512C612C712CCA01B901A30192010E94FD
:100EF0001F12605DD7016E937D01211531054105FB
:100F0000510589F790E080E0109721F0BD01C501FF
:100F10000E943007800F911FA1960FB6F894DEBF94
:100F20000FBECDBFDF91CF911F910F91FF90EF903A
:100F3000DF90CF90BF90AF907F906F905F904F9079
:100F40000895AB01960119A28E010F5D1F4F8AE033
:100F5000C82ED12CE12CF12CCA01B901A7019601B0
:100F60000E941F12605DF80162938F012115310507
:100F70004105510589F790E080E0309769F2BF01A3
:100F8000C5010E943007C8CFCF93DF93AC01990F02
:100F9000660B770B80E194E00E943F07EC0164E56B
:100FA00072E080E194E00E9430078C0F9D1FDF917A
:100FB000CF910895CF93DF93BC0180E194E00E942C
:100FC0003007EC0164E572E080E194E00E943007B4
:100FD0008C0F9D1FDF91CF91089585ED8093BC000C
:100FE0008091E8039091E903A091EA03B091EB03AB
:100FF0000796A11DB11D23E0B695A79597958795F6
:101000002A95D1F72091BC0024FD03C01092E6037D
:1010100008954091E8035091E9036091EA037091CB
:10102000EB03452B462B472B69F30097A105B10530
:1010300041F025E32A95F1F700000197A109B109D4
:10104000E1CF8091E7030C94F3041F920F920FB647
:101050000F9211240BB60F922F933F934F935F93F0
:101060006F937F938F939F93AF93BF93EF93FF9370
:1010700080E194E00E948D02FF91EF91BF91AF91CA
:101080009F918F917F916F915F914F913F912F91A0
:101090000F900BBE0F900FBE0F901F9018951F92D0
:1010A0000F920FB60F9211240BB60F922F938F93BE
:1010B0009F93EF93FF93E0912004F09121048081AE
:1010C000E0912604F091270482FD1DC0908180915B
:1010D00029048F5F8F7320912A04821741F0E091D9
:1010E0002904F0E0E05FFB4F958F80932904FF9186
:1010F000EF919F918F912F910F900BBE0F900FBE8C
:101100000F901F9018958081F2CF1F920F920FB60B
:101110000F9211242F933F938F939F93AF93BF937D
:101120008091BC039091BD03A091BE03B091BF0319
:101130003091800323E0230F2D3758F50196A11D30
:10114000B11D209380038093BC039093BD03A093B3
:10115000BE03B093BF038091810390918203A0915D
:101160008303B09184030196A11DB11D8093810377
:1011700090938203A0938303B0938403BF91AF91B4
:101180009F918F913F912F910F900FBE0F901F90C5
:10119000189526E8230F0296A11DB11DD2CF1F92EC
:1011A0000F920FB60F9211240BB60F922F933F930D
:1011B0004F935F936F937F938F939F93AF93BF935F
:1011C000EF93FF938091B900887F803609F44DC07A
:1011D00008F040C0883209F4A9C028F5803109F42C
:1011E0009DC0C8F4882309F4FBC0883009F496C078
:1011F000FF91EF91BF91AF919F918F917F916F91EF
:101200005F914F913F912F910F900BBE0F900FBEAA
:101210000F901F901895883109F488C0803241F7EB
:101220008093E40314C0803409F49DC040F48033FB
:10123000B9F38833E9F68093E40385ECB0C08035D8
:1012400009F485C0883509F496C0883489F60E946F
:10125000ED07CECF883909F48CC038F5883729F0EE
:1012600050F4883611F0803719F683E08093E60356
:1012700010927F0357C0883809F47BC0803919F079
:10128000803809F0B5CF80917F03803208F071C0BB
:10129000E0917F0381E08E0F80937F038091BB00FC
:1012A000F0E0E15AFC4F80833DC0803B39F0E0F430
:1012B000803A09F479C0883A09F09ACF84E08093A3
:1012C000E60310925E0310925D03E0918703F091B4
:1012D0008803199580915D0381110FC081E080938F
:1012E0005D0310923D0309C0803C09F4A6CF883C01
:1012F00009F4A3CF883B09F07BCFE0915E0381E046
:101300008E0F80935E03F0E0E35CFC4F808180935E
:10131000BB0090915E0380915D0329C08091C10361
:101320008093BB0085EC8093BC0062CF9091E30377
:101330008091E203981758F5E091E30381E08E0F66
:101340008093E303F0E0EE53FC4F8081E9CFE0911E
:10135000E30381E08E0F8093E3038091BB00F0E014
:10136000EE53FC4F80839091E3038091E203981742
:10137000C8F285E8D8CFE091E30381E08E0F809337
:10138000E3038091BB00F0E0EE53FC4F808380913B
:10139000E50381115CCF81E08093C00384EA8093F0
:1013A000BC001092E60324CF85EC8093BC00109221
:1013B000E60380917F03803230F4E0917F03F0E018
:1013C000E15AFC4F108260917F0370E0E091850349
:1013D000F09186038FE593E0199510927F0308CF73
:1013E0001092E40334CFCF93DF9310921304109242
:1013F000120488EE93E0A0E0B0E080931404909390
:101400001504A0931604B09317042EE132E0309334
:1014100011042093100425EC30E030931D04209338
:101420001C0424EC30E030931F0420931E0420ECB5
:1014300030E0309321042093200421EC30E03093FD
:1014400023042093220422EC30E0309325042093DF
:10145000240426EC30E030932704209326041092D5
:10146000290410922A0410922B0410922C0410923A
:10147000B0041092AF048093B1049093B204A0938F
:10148000B304B093B40480E392E09093AE048093ED
:10149000AD0410922B0510922A058CE492E09093F3
:1014A0002905809328058DE080932C058FEF80938C
:1014B0002D058CE080932E0588E080932F0589E030
:1014C000809330058AE0809331058BE0809332056C
:1014D000109233051092340510923505109236059E
:1014E0001092370581E080933B0510923C0580E423
:1014F00080933D0580E180933E0580E580933F0524
:1015000061E08DE00E94120480912D058F3F19F05B
:1015100061E00E94120461E080912E050E94120495
:10152000C8E2D5E09E01285235408091370584FD00
:101530000BC084E090E021962817390744F461E05D
:101540008E810E941204EECF88E090E0F4CF8BE30E
:101550009DE00197F1F760E080912C050E94E00387
:1015600060E080912E050E94E00380912D058F3F61
:1015700019F060E00E94E0036091370564FD88C0C7
:1015800063E088E295E00E949F06CBE4D6E4CE01BA
:101590000197F1F763E088E295E00E949F062197AA
:1015A000F1F763E088E295E00E949F0683E592E010
:1015B0000197F1F762E088E295E00E949F06609152
:1015C0003705606240E088E295E00E94CC0684E046
:1015D0008093380540E06CE088E295E00E94CC06FC
:1015E0000E941F0782E08093390540E066E088E2B0
:1015F00095E00E94CC061092BB041092BF0410929A
:10160000BE041092C00482E492E09093BA048093E6
:10161000B904E5EDF4E01082148213821582369647
:1016200085E0E131F807B9F786E092E090931C0578
:1016300080931B0582E092E090931E0580931D0528
:1016400084E080931F05809320058AE092E09093C8
:101650001A05809319058AE090E090932205809303
:10166000210584EF91E09093240580932305109247
:101670002705109226051092150510921605109256
:1016800017051092180510922505DF91CF91089546
:10169000606240E088E295E00E94CC068BE496E42C
:1016A0000197F1F760913705606240E088E295E0CC
:1016B0000E94CC0683E592E00197F1F7609137052F
:1016C000606240E088E295E00E94CC0678CF789492
:1016D00084B5826084BD84B5816084BD85B5826037
:1016E00085BD85B5816085BD80916E0081608093E8
:1016F0006E00109281008091810082608093810051
:101700008091810081608093810080918000816060
:10171000809380008091B10084608093B1008091BB
:10172000B00081608093B0008091910082608093CE
:101730009100809191008160809391008091900050
:101740008160809390008091A10082608093A100CD
:101750008091A10081608093A1008091A0008160B0
:101760008093A0008091210182608093210180916B
:10177000210181608093210180912001816080930B
:10178000200180917A00846080937A0080917A00B1
:10179000826080937A0080917A00816080937A00E1
:1017A00080917A00806880937A001092C100109234
:1017B0008A03109289031092ED0310920F040E9485
:1017C000D50487E192E0909388038093870388E1B2
:1017D00092E09093860380938503E0912004F0913A
:1017E000210482E08083E0911C04F0911D041082AA
:1017F000E0911E04F0911F048FEC80831092280466
:10180000E0912404F091250486E08083E091220495
:10181000F0912304808180618083E0912204F09123
:101820002304808188608083E0912204F091230466
:10183000808180688083E0912204F091230480817C
:101840008F7D808381E08093EC0380E580930E049C
:1018500090E080E00E9481068AEA90E00E94810682
:101860008091B5039091B6030E9481060E941405F1
:1018700061E082E30E94120461E083E30E941204AB
:1018800061E084E30E94120461E085E30E94120497
:10189000412C512C3201439422242A94322C882446
:1018A0008394912C81E0809325058FB7F894409123
:1018B000BC035091BD036091BE037091BF038FBF05
:1018C0008091150590911605A0911705B091180506
:1018D000481B590B6A0B7B0B8091210590912205C7
:1018E000B0E0A0E084179507A607B70708F02CC161
:1018F000C0E080911F05C81760F4E0911B05F091CE
:101900001C05EC0FF11D62E080810E941204CF5F84
:10191000F0CFB12C80912005B81608F05FC00B2DD8
:1019200010E0E0911D05F0911E05E00FF11F61E050
:1019300080810E941204E0911D05F0911E05E00FC8
:10194000F11F60E080810E94E003D301C2010B2CF3
:1019500004C0880F991FAA1FBB1F0A94D2F76C01FD
:101960007C01E094F094A12C80911F05A816F8F456
:10197000CA2DD0E0E0911B05F0911C05EC0FFD1F76
:1019800080810E94B4032496CC0FDD1FC754DB4F27
:10199000892B41F4888199818C299D299983888399
:1019A000A394E2CF888199818E219F21F7CFE09186
:1019B0001D05F0911E05E00FF11F61E080810E947E
:1019C000E00380911D0590911E05080F191F60E02E
:1019D000D8018C910E941204B3949CCF59EBC52E70
:1019E00054E0D52EE6018F8D98A1892B21F41C8E11
:1019F0003E8E2D8E19A22696E5EFF4E0EC17FD073A
:101A000091F710E046E0B42E80911F05181708F0FA
:101A100052C000E0E12EF12CEE0CFF1CC7018F53E9
:101A20009B4F7C0120912005021708F042C0D7018E
:101A30006D917C91002E02C0769567950A94E2F72D
:101A4000129F90011124200F311DE9EBF4E080E09A
:101A5000458D568D2417350709F4EFC48F5F3696F0
:101A60008A30B1F760FF23C0E9EBF4E090E080E05A
:101A7000448D411117C0E0911905F0911A05E20F4C
:101A8000F31F6081B89EF001B99EF00D1124E75458
:101A9000FB4F648F368F258F10A2178E61E00E9456
:101AA000A70105C0019636968A30910509F70F5FA8
:101AB000B9CF1F5FA9CF80E0F60191A19111892FC5
:101AC000F6E0CF0ED11CCC16DD06B1F79FB7F89427
:101AD0004091BC035091BD036091BE037091BF0360
:101AE0009FBF40931505509316056093170570939B
:101AF0001805882349F18091DA04882329F180911F
:101B0000D8049091D9040197F9F48091D504809379
:101B1000BB0381111EC08091000290910102892BAC
:101B200009F088C410E000E0C091B503D091B6037D
:101B30000C171D070CF01EC461E082E3800F0E94A9
:101B4000E0030F5F1F4FF0CF109225051092BB03EB
:101B5000E2CF8F3461F487E592E00E94DA071092B9
:101B6000B7031092B8031092B9031092BA03809190
:101B7000BB038133D1F48DE592E00E94DA07209116
:101B8000B7033091B8034091B9035091BA032115BE
:101B900031054105510509F07FC14092B7035092CC
:101BA000B8036092B9037092BA038091BB03843387
:101BB000F1F486E692E00E94DA072091B7033091B3
:101BC000B8034091B9035091BA032115310541057D
:101BD000510509F072C184E090E0A0E0B0E080938C
:101BE000B7039093B803A093B903B093BA0380915D
:101BF000BB038733F1F48FE692E00E94DA0720916D
:101C0000B7033091B8034091B9035091BA0321153D
:101C100031054105510509F061C187E090E0A0E080
:101C2000B0E08093B7039093B803A093B903B09347
:101C3000BA038091BB038033E9F488E792E00E9405
:101C4000DA072091B7033091B8034091B90350915E
:101C5000BA03211531054105510561F0AAE0B0E054
:101C60000E9449126093B7037093B8038093B9033D
:101C70009093BA038091BB038233F1F481E892E040
:101C80000E94DA072091B7033091B8034091B9035D
:101C90005091BA03211531054105510509F02FC1B5
:101CA00082E090E0A0E0B0E08093B7039093B803A7
:101CB000A093B903B093BA038091BB038533F1F4C9
:101CC0008AE892E00E94DA072091B7033091B803C6
:101CD0004091B9035091BA032115310541055105D1
:101CE00009F01EC185E090E0A0E0B0E08093B7036A
:101CF0009093B803A093B903B093BA038091BB0348
:101D00008833F1F483E992E00E94DA072091B70367
:101D10003091B8034091B9035091BA0321153105B0
:101D20004105510509F00DC188E090E0A0E0B0E068
:101D30008093B7039093B803A093B903B093BA0309
:101D40008091BB038333F1F48CE992E00E94DA07BF
:101D50002091B7033091B8034091B9035091BA0371
:101D6000211531054105510509F0FCC083E090E0E3
:101D7000A0E0B0E08093B7039093B803A093B903B9
:101D8000B093BA038091BB038633F1F485EA92E005
:101D90000E94DA072091B7033091B8034091B9034C
:101DA0005091BA03211531054105510509F0EBC0E9
:101DB00086E090E0A0E0B0E08093B7039093B80392
:101DC000A093B903B093BA038091BB038933F1F4B4
:101DD0008EEA92E00E94DA072091B7033091B803AF
:101DE0004091B9035091BA032115310541055105C0
:101DF00009F0DAC089E090E0A0E0B0E08093B7039A
:101E00009093B803A093B903B093BA038091BB0336
:101E10008D3309F0FDC08091B3039091B4038330FA
:101E200091050CF0D2C087EB92E00E94DA07409156
:101E3000B7035091B8036091B9037091BA0380E180
:101E400094E00E943F0764E572E080E194E00E9424
:101E500030074091B7035091B8036091B903709176
:101E6000BA038091B3039091B4039C012F5F3F4F5D
:101E70003093B4032093B303880F991FFC01E555F9
:101E8000FC4F518340831092B7031092B803109215
:101E9000B9031092BA03BCC0AAE0B0E00E94491294
:101EA0006F5F7F4F8F4F9F4F6093B7037093B8035F
:101EB0008093B9039093BA0378CEAAE0B0E00E9471
:101EC00049126C5F7F4F8F4F9F4F6093B7037093A2
:101ED000B8038093B9039093BA0389CEAAE0B0E027
:101EE0000E944912695F7F4F8F4F9F4F6093B703E6
:101EF0007093B8038093B9039093BA039ACEAAE083
:101F0000B0E00E9449126E5F7F4F8F4F9F4F6093EA
:101F1000B7037093B8038093B9039093BA03CCCE00
:101F2000AAE0B0E00E9449126B5F7F4F8F4F9F4F36
:101F30006093B7037093B8038093B9039093BA0387
:101F4000DDCEAAE0B0E00E944912685F7F4F8F4F5C
:101F50009F4F6093B7037093B8038093B903909336
:101F6000BA03EECEAAE0B0E00E9449126D5F7F4F47
:101F70008F4F9F4F6093B7037093B8038093B9035B
:101F80009093BA03FFCEAAE0B0E00E9449126A5FC4
:101F90007F4F8F4F9F4F6093B7037093B803809329
:101FA000B9039093BA0310CFAAE0B0E00E9449129F
:101FB000675F7F4F8F4F9F4F6093B7037093B80356
:101FC0008093B9039093BA0321CF8330910509F030
:101FD000A8C01092B7031092B8031092B9031092E0
:101FE000BA0382EC92E00E94DA078FEC92E00E9442
:101FF000DA076FEC72E088E295E00E94300780918A
:10200000B3039091B40301969093B4038093B30308
:102010008091BB038A3209F000C18EEE92E00E94EB
:10202000DA0781E08093EC0380E580930E04109240
:10203000ED0310920F0490E080E00E9481068AEA8E
:1020400090E00E9481060E9414050E9452046B01D8
:102050007C018091E6038111A3C081E08093E603B7
:102060008093E5039FEF9093E4031092E3031092B3
:10207000E2038093C1038091C103806A8093C1030E
:102080008091C003813009F04FC11092C0030E94BB
:1020900052046B017C018091C1038093BB0080914D
:1020A000E8039091E903A091EA03B091EB03892B37
:1020B0008A2B8B2BA1F00E9452040091E80310910F
:1020C000E9032091EA033091EB036C197D098E0935
:1020D0009F09061717072807390708F482C080915F
:1020E000BC0083FDD8CF85EC8093BC000E945204D5
:1020F0006B017C018091E603813009F417C1809166
:10210000E303811135C18091E303A2ECB3E0EBE876
:10211000F3E090E0981709F469C02D9121939F5F37
:10212000F9CF0497A9F5C091B703D091B8032197CF
:10213000D093B603C093B50381E08093EC0380E5B0
:1021400080930E041092ED0310920F0490E080E053
:102150000E9481068AEA90E00E948106CE010E94D8
:1021600081060E94140589ED92E00E94DA078091B1
:10217000B5039091B60301960E94C4078091B30302
:102180009091B40301969093B4038093B3037BCEF4
:102190008091B5039091B60301960E94C40738CF91
:1021A0008091E8039091E903A091EA03B091EB03D9
:1021B000892B8A2B8B2B09F44CCF0E94520400915F
:1021C000E8031091E9032091EA033091EB036C19C5
:1021D0007D098E099F09061717072807390708F098
:1021E00038CF8091E7030E94F30480E010928A03C5
:1021F000809389038DEA94E00E940B0601969093E8
:10220000B6038093B50383E093E00E94DA078091E0
:10221000B5039091B6030E94C4078091BB038D3231
:1022200009F04BC01092B6031092B50390920102D0
:102230008092000260E082E30E94E00360E083E3BA
:102240000E94E00360E084E30E94E00360E085E335
:102250000E94E00381E08093EC0380E580930E040C
:102260001092ED0310920F0490E080E00E9481062E
:102270008AEA90E00E94810690E080E00E94810658
:102280000E94140561E173E088E295E00E94300746
:1022900083E090E09093B4038093B30389E193E0EB
:1022A0000E94DA078091B5039091B60301960E94CF
:1022B000C4070E9477040E941F078091BB038F32DE
:1022C00081F490920102809200020E941F076BE24B
:1022D00073E088E295E00E9430070E9477040E9434
:1022E0001F078091BB038F3481F41092010210927A
:1022F00000020E941F0763E373E088E295E00E94FA
:1023000030070E9477040E941F070E941F07409118
:10231000B7035091B8036091B9037091BA0388E292
:1023200095E00E943F07F7CB85EEDECE8091E80373
:102330009091E903A091EA03B091EB03892B8A2BDA
:102340008B2B09F4D7CE0E9452040091E803109120
:10235000E9032091EA033091EB036C197D098E09A2
:102360009F09061717072807390708F0C3CE39CF8A
:1023700081E0CBCE8091B3039091B40305970CF428
:1023800059C0C430D1050CF055C08E01000F111F8B
:1023900005551C4F90E5D92E8091B5039091B60359
:1023A0000E94C407CE010E94C40761E08C2F8E5C9E
:1023B0000E94E003F12CE12CD8014D915C91E416D0
:1023C000F50694F44E195F09052E000C660B770B89
:1023D00088E295E00E943F070E9477040E941F0751
:1023E000BFEFEB1AFB0AE8CF81E08093EC03D092B9
:1023F0000E041092ED0310920F0490E080E00E9412
:1024000081068AEA90E00E948106CE010E94810640
:102410000E94140521960E5F1F4FC430D10509F0AC
:10242000BBCF8091B5039091B60301969093B6030C
:102430008093B5030E941C0335CA617030CBA1E2C2
:102440001A2EAA1BBB1BFD010DC0AA1FBB1FEE1F2E
:10245000FF1FA217B307E407F50720F0A21BB30B79
:10246000E40BF50B661F771F881F991F1A9469F7F5
:1024700060957095809590959B01AC01BD01CF0151
:102480000895EE0FFF1F881F8BBF0790F691E02D78
:1024900019940E945412A59F900DB49F900DA49F73
:1024A000800D911D11240895A29FB001B39FC0011A
:1024B000A39F700D811D1124911DB29F700D811D70
:0A24C0001124911D0895F894FFCF38
:1024CA00010017191B1D2523211F4F303D2B3132C7
:1024DA00332D3435362A3738392F00000000AF0241
:1024EA0019024602FC027702550269020000000046
:1024FA00520625068606FB051E060B06FC0500008D
:10250A0000004E040E04DD03000000002A07190231
:10251A008606AD040D0A0053746172740042757424
:10252A00746F6E203100427574746F6E20340042ED
:10253A007574746F6E203700427574746F6E203034
:10254A0000427574746F6E203200427574746F6E37
:10255A00203500427574746F6E20380042757474A9
:10256A006F6E203300427574746F6E2036004275A8
:10257A0074746F6E2039004E756D626572206973CE
:10258A003A0054696D657320536574746564004537
:10259A006E74657220234F500043757272656E74B3
:1025AA0020737461746520536574746564005265A0
:1025BA0073746F72696E67204C617374205374610F
:1025CA007465004C61737420537461746520697377
:1025DA0000526573657465640043757272656E7442
:1025EA002053746174652049533A0053544F505034
:0C25FA0045440053746172746564000075
:00000001FF
