:100000000C945F000C9487000C9487000C9487007C
:100010000C9487000C9487000C9487000C94C20405
:100020000C9487000C9487000C9487000C941105A5
:100030000C9487000C9487000C946C050C9487003A
:100040000C9420040C9487000C9490040C946A0483
:100050000C9487000C9487000C9487000C94870004
:100060000C9487000C948700020100000000080037
:10007000020100000304070000000000000000006F
:10008000000000250028002B0000000000240027AD
:10009000002A00040404040404040402020202020C
:1000A000020303030303030102040810204080013C
:1000B000020408102001020408102000FA0711248D
:1000C0001FBECFEFD8E0DEBFCDBF11E0A0E0B1E0B2
:1000D000E2E4F3E102C005900D92AA33B107D9F72B
:1000E00022E0AAE3B1E001C01D92A530B207E1F71A
:1000F00010E0CFE5D0E004C02197FE010E9477090F
:10010000CE35D107C9F70E94C7050C949F090C94FE
:10011000000090E0FC01E955FF4F24918D569F4F60
:10012000FC018491882399F090E0880F991FFC01CD
:10013000E757FF4FA591B491FC01E158FF4F85911E
:1001400094918FB7F894EC91E22BEC938FBF0895C4
:100150008F929F92AF92BF92CF92DF92EF92FF92D7
:100160001F93CF93DF93EC016B0188810E9489007C
:100170001981F12CE12C812F8D7F09F0FEC060E008
:1001800072E18AE790E0A70196010E9458094901AF
:100190005A01DA01C9010197A109B1098F3F9105FF
:1001A000A105B10509F00CF4B8C060E472E48FE079
:1001B00090E0A70196010E94580921503109410998
:1001C0005109123009F06AC082E02F3F3105410524
:1001D000510509F00CF45BC060E970ED83E090E03C
:1001E000A70196010E94580921503109410951097E
:1001F00083E02F3F31054105510509F00CF447C05C
:1002000068E478EE81E090E0A70196010E94580929
:10021000215031094109510984E02F3F3105410541
:100220005105A9F1A4F164E274EF80E090E0A70128
:1002300096010E945809215031094109510985E070
:100240002F3F31054105510511F108F162E17AE7CF
:1002500080E090E0A70196010E94580921503109E1
:100260004109510986E02F3F31054105510579F0DB
:1002700070F08AE0B594A794979487948A95D1F703
:10028000A5019401215031094109510987E090915C
:10029000B100987F892B8093B10047C02F3F310573
:1002A0004105510509F00CF466C068E478EE81E080
:1002B00090E0A70196010E94580921503109410997
:1002C000510984E01111BCCF83E02F3F3105410576
:1002D000510539F134F162E17AE780E090E0A7015D
:1002E00096010E945809215031094109510984E0C1
:1002F0002F3F310541055105A1F098F09AE0B594E2
:10030000A794979487949A95D1F7A50194012150C9
:1003100031094109510985E004C09C0181E01111B6
:10032000B6CF95B5987F892B85BD8981813009F439
:100330004EC0823009F460C0811111C027BD8FEF1B
:100340009FEFDC018093010290930202A0930302CD
:10035000B093040280916E00826080936E00DF9102
:10036000CF911F91FF90EF90DF90CF90BF90AF9013
:100370009F908F90089582E0D2CF60E072E18AE78B
:1003800090E0A70196010E945809215031094109C6
:10039000510991E02115310581E0480751056CF0C4
:1003A00068E478EE81E090E0A70196010E94580988
:1003B000215031094109510993E0113009F0B5CFBD
:1003C00080918100887F892B80938100AECF30930C
:1003D0008900209388008FEF9FEFDC018093FD015F
:1003E0009093FE01A093FF01B093000280916F00F3
:1003F000826080936F00B3CF2093B3008FEF9FEFA5
:10040000DC018093F9019093FA01A093FB01B09372
:10041000FC0180917000826080937000A0CFAF9249
:10042000BF92CF92DF92EF92FF920F931F93CF93E1
:10043000DF936C017B018B01040F151FEB015E0143
:10044000AE18BF08C017D10759F06991D601ED91D8
:10045000FC910190F081E02DC6010995892B79F777
:10046000C501DF91CF911F910F91FF90EF90DF9029
:10047000CF90BF90AF900895FC01538D448D252FF0
:1004800030E0842F90E0821B930B541710F0CF962E
:10049000089501970895FC01918D828D981761F060
:1004A000A28DAE0FBF2FB11D5D968C91928D9F5F77
:1004B0009F73928F90E008958FEF9FEF0895FC0156
:1004C000918D828D981731F0828DE80FF11D858D09
:1004D00090E008958FEF9FEF0895FC01918D228D9C
:1004E000892F90E0805C9F4F821B91098F73992721
:1004F000089583E591E00E946D0221E0892B09F4C3
:1005000020E0822F089580E090E0892B29F00E945E
:10051000790281110C9400000895FC01A48DA80FAC
:10052000B92FB11DA35ABF4F2C91848D90E0019635
:100530008F739927848FA689B7892C93A089B18955
:100540008C91837080648C93938D848D981306C0F6
:100550000288F389E02D80818F7D80830895EF925A
:10056000FF920F931F93CF93DF93EC0181E0888F6D
:100570009B8D8C8D98131AC0E889F989808185FF3D
:1005800015C09FB7F894EE89FF896083E889F989DF
:1005900080818370806480839FBF81E090E0DF91E1
:1005A000CF911F910F91FF90EF900895F62E0B8D34
:1005B00010E00F5F1F4F0F731127E02E8C8D8E11EF
:1005C0000CC00FB607FCFACFE889F989808185FF56
:1005D000F5CFCE010E948D02F1CFEB8DEC0FFD2FF8
:1005E000F11DE35AFF4FF0829FB7F8940B8FEA8911
:1005F000FB8980818062CFCFCF93DF93EC01888D20
:100600008823B9F0AA89BB89E889F9898C9185FD8D
:1006100003C0808186FD0DC00FB607FCF7CF8C911B
:1006200085FFF2CF808185FFEDCFCE010E948D0244
:10063000E9CFDF91CF91089590E0FC01E559FF4F9C
:100640002491FC01E955FF4F3491FC01ED56FF4F19
:10065000E491EE23C9F0222339F0233001F1A8F40C
:10066000213019F1223029F1F0E0EE0FFF1FE1589F
:10067000FF4FA591B4918FB7F894EC91611126C00A
:1006800030953E233C938FBF08952730A9F0283042
:10069000C9F0243049F7809180008F7D03C080919C
:1006A00080008F7780938000DFCF84B58F7784BD03
:1006B000DBCF84B58F7DFBCF8091B0008F778093A7
:1006C000B000D2CF8091B0008F7DF9CF3E2BDACF32
:1006D0008E50806480937C0080917A008064809347
:1006E0007A0080917A0086FDFCCF8091780090910D
:1006F00079000895FC019181913069F0923089F080
:10070000911105C090916E009D7F90936E0060E006
:1007100080810C941C0390916F009D7F90936F00DB
:10072000F6CF909170009D7F90937000F0CFDC0128
:1007300080913A01833008F07FC06C93E82FF0E09D
:10074000E859FF4FE4911196EC9311978F5F8093D6
:100750003A01E13029F120F0E23009F447C0089570
:1007600014BC15BC84B5826084BD85B5816085BD2F
:100770008C9190E0FC01ED56FF4FE491F0E0EE0F1C
:10078000FF1FE158FF4F2591349130933C01209396
:100790003B01FC01E955FF4FE491E0933D010895D1
:1007A0001092800010928100809181008860809377
:1007B0008100809181008160809381008C9190E024
:1007C000FC01ED56FF4FE491F0E0EE0FFF1FE15802
:1007D000FF4F2591349130933F0120933E01FC015E
:1007E000E955FF4FE491E093400108951092B00065
:1007F0001092B1008091B00082608093B00080912F
:10080000B10081608093B1008C9190E0FC01ED56C5
:10081000FF4FE491F0E0EE0FFF1FE158FF4F2591ED
:1008200034913093420120934101FC01E955FF4F7F
:10083000E491E093430108958FEF11968C9308950E
:100840001F920F920FB60F9211242F933F938F9305
:100850009F93AF93BF938091F5019091F601A09182
:10086000F701B091F8013091F40123E0230F2D3707
:1008700058F50196A11DB11D2093F4018093F50157
:100880009093F601A093F701B093F8018091F001E5
:100890009091F101A091F201B091F3010196A11D97
:1008A000B11D8093F0019093F101A093F201B093F8
:1008B000F301BF91AF919F918F913F912F910F9035
:1008C0000FBE0F901F90189526E8230F0296A11DCA
:1008D000B11DD2CF1F920F920FB60F9211242F93FA
:1008E0003F934F935F936F937F938F939F93AF93B8
:1008F000BF93EF93FF9383E591E00E948D02FF91F8
:10090000EF91BF91AF919F918F917F916F915F9187
:100910004F913F912F910F900FBE0F901F90189500
:100920001F920F920FB60F9211242F938F939F93C4
:10093000EF93FF93E0916301F09164018081E09176
:100940006901F0916A0182FD1BC0908180916C0168
:100950008F5F8F7320916D01821741F0E0916C01E0
:10096000F0E0ED5AFE4F958F80936C01FF91EF916F
:100970009F918F912F910F900FBE0F901F90189500
:100980008081F4CF1F920F920FB60F9211242F93F4
:100990003F938F939F93AF93BF93EF93FF93809178
:1009A000F9019091FA01A091FB01B091FC0100972F
:1009B000A105B10531F130914301E0914101F09180
:1009C0004201208123272083181619061A061B06C8
:1009D0001CF40197A109B1098093F9019093FA01E0
:1009E000A093FB01B093FC01FF91EF91BF91AF91F8
:1009F0009F918F913F912F910F900FBE0F901F905D
:100A00001895209170002D7F209370002091430154
:100A1000E0914101F0914201308120952323208310
:100A2000DBCF1F920F920FB60F9211248F939F93DB
:100A3000AF93BF93EF93FF938091FD019091FE01DF
:100A4000A091FF01B0910002892B8A2B8B2BA1F181
:100A500090914001E0913E01F0913F018081892712
:100A600080838091FD019091FE01A091FF01B091E2
:100A70000002181619061A061B069CF48091FD0147
:100A80009091FE01A091FF01B09100020197A10990
:100A9000B1098093FD019093FE01A093FF01B093F3
:100AA0000002FF91EF91BF91AF919F918F910F90B5
:100AB0000FBE0F901F90189580916F008D7F8093CF
:100AC0006F0080914001E0913E01F0913F019081E3
:100AD000809589238083E5CF1F920F920FB60F92E6
:100AE00011248F939F93AF93BF93EF93FF938091C4
:100AF000010290910202A0910302B0910402892B9D
:100B00008A2B8B2BA1F190913D01E0913B01F0915B
:100B10003C018081892780838091010290910202AB
:100B2000A0910302B0910402181619061A061B06BA
:100B30009CF48091010290910202A0910302B09175
:100B400004020197A109B109809301029093020266
:100B5000A0930302B0930402FF91EF91BF91AF9174
:100B60009F918F910F900FBE0F901F9018958091BD
:100B70006E008D7F80936E0080913D01E0913B017E
:100B8000F0913C019081809589238083E5CF789412
:100B900084B5826084BD84B5816084BD85B5826082
:100BA00085BD85B5816085BD80916E008160809333
:100BB0006E0010928100809181008260809381009C
:100BC00080918100816080938100809180008160AC
:100BD000809380008091B10084608093B100809107
:100BE000B00081608093B00080917A00846080932F
:100BF0007A0080917A00826080937A0080917A00F6
:100C0000816080937A0080917A00806880937A0076
:100C10001092C100E0916301F091640182E0808351
:100C2000E0915F01F09160011082E0916101F0912B
:100C300062018FEC808310926B01E0916701F0916B
:100C4000680186E08083E0916501F0916601808112
:100C500080618083E0916501F09166018081886008
:100C60008083E0916501F0916601808180688083D6
:100C7000E0916501F091660180818F7D808385E040
:100C80000E94890084E00E94890083E00E9489001C
:100C900068E084E491E00E94970369E086E491E0D3
:100CA0000E9497036AE088E491E00E94970360E065
:100CB000262E60E0362EC1E005E010E074E0E72E5D
:100CC000F12CE3E0CE2ED12CAA24A394B12C83E501
:100CD00091E00E946D02181619060CF0EAC083E537
:100CE00091E00E944B02D82F682F83E591E00E948B
:100CF000AF0242E050E066E371E083E591E00E94DC
:100D00000F02EFE9ED0FEA3108F025C00E2E000CBE
:100D1000FF0BE357F94F0C947709800776076A07B2
:100D20008A07AA07910796079B07AB06AB06D6076B
:100D3000AB06C0077B07E807AB06A007B10785072E
:100D4000B607AB067107A5076507BB07A706109294
:100D500052011092510180914C018823B1F180E140
:100D60000E9468034C018091490187FD2EC0E091EB
:100D70005101F0915201EE0FFF1FE65DFE4F6081C1
:100D80007181660F771F660F771F072E000C880B87
:100D9000990B0E945F082B013C01B401990C880B50
:100DA000990B0E945F0820E030E040E05BE30E9486
:100DB000C3089B01AC01C301B2010E94C3080E9499
:100DC000270888E491E00E94A80080914B018823C5
:100DD000B1F18FE00E9468034C018091470187FDCB
:100DE0002EC0E0914F01F0915001EE0FFF1FE25E27
:100DF000FE4F60817181660F771F660F771F072E88
:100E0000000C880B990B0E945F082B013C01B40178
:100E1000990C880B990B0E945F0820E030E040E0BD
:100E20005BE30E94C3089B01AC01C301B2010E94B5
:100E3000C3080E94270886E491E00E94A8008091E0
:100E40004A018823B1F18EE00E9468034C01809131
:100E5000450187FD2EC0E0914D01F0914E01EE0F4E
:100E6000FF1FEE5EFE4F60817181660F771F660F78
:100E7000771F072E000C880B990B0E945F082B012F
:100E80003C01B401990C880B990B0E945F0820E08B
:100E900030E040E05BE30E94C3089B01AC01C3016A
:100EA000B2010E94C3080E94270884E491E00E94D6
:100EB000A8002114310409F40ACF0E947902882382
:100EC00009F405CF0E94000002CFB0925201A09217
:100ED000510141CF82E090E0909352018093510103
:100EE0003ACFD0925201C092510135CFF0925201C7
:100EF000E092510130CF10935201009351012BCF5A
:100F00001092500110924F0126CFB0925001A09242
:100F10004F0121CF82E090E09093500180934F01E8
:100F20001ACFD0925001C0924F0115CFF0925001CC
:100F3000E0924F0110CF1093500100934F010BCF5F
:100F400010924E0110924D0106CFB0924E01A09228
:100F50004D0101CF82E090E090934E0180934D01CE
:100F6000FACED0924E01C0924D01F5CEF0924E01D4
:100F7000E0924D01F0CE10934E0100934D01EBCE67
:100F800080914C01882359F010924C0160E085E07B
:100F90000E941C0388E491E00E947A03DCCEC09397
:100FA0004C0161E085E00E941C03D5CE80914B018D
:100FB000882349F010924B0160E084E00E941C03FA
:100FC00086E491E0E9CFC0934B0161E084E0EBCF90
:100FD00080914A01882349F010924A0160E083E041
:100FE0000E941C0384E491E0D7CFC0934A0161E0E2
:100FF00083E0D9CFE3E5F1E01382128288EE93E03B
:10100000A0E0B0E084839583A683B78384E091E079
:101010009183808385EC90E09587848784EC90E0D1
:101020009787868780EC90E0918B808B81EC90E0B5
:10103000938B828B82EC90E0958B848B86EC90E096
:10104000978B868B118E128E138E148E08950E94AC
:101050002E086894B1110C94BD0808950E94A2084E
:1010600088F09F5798F0B92F9927B751B0F0E1F069
:10107000660F771F881F991F1AF0BA95C9F714C019
:10108000B13091F00E94BC08B1E008950C94BC0806
:10109000672F782F8827B85F39F0B93FCCF3869552
:1010A00077956795B395D9F73EF4909580957095AF
:1010B00061957F4F8F4F9F4F0895E89409C097FB2C
:1010C0003EF490958095709561957F4F8F4F9F4F1F
:1010D0009923A9F0F92F96E9BB279395F695879563
:1010E00077956795B795F111F8CFFAF4BB0F11F426
:1010F00060FF1BC06F5F7F4F8F4F9F4F16C08823CD
:1011000011F096E911C0772321F09EE8872F762F02
:1011100005C0662371F096E8862F70E060E02AF043
:101120009A95660F771F881FDAF7880F969587952F
:1011300097F9089557FD9058440F551F59F05F3F98
:1011400071F04795880F97FB991F61F09F3F79F0E9
:1011500087950895121613061406551FF2CF46956B
:10116000F1DF08C0161617061806991FF1CF8695ED
:101170007105610508940895E894BB2766277727D1
:10118000CB0197F908950E94D6080C9447090E9454
:10119000390938F00E94400920F0952311F00C9491
:1011A00030090C94360911240C94BD080E949A0849
:1011B00070F3959FC1F3950F50E0551F629FF001AA
:1011C000729FBB27F00DB11D639FAA27F00DB11DC3
:1011D000AA1F649F6627B00DA11D661F829F22274C
:1011E000B00DA11D621F739FB00DA11D621F839FD3
:1011F000A00D611D221F749F3327A00D611D231FA9
:10120000849F600D211D822F762F6A2F11249F57F6
:1012100050409AF0F1F088234AF0EE0FFF1FBB1FF9
:10122000661F771F881F91505040A9F79E3F5105B8
:1012300080F00C9430090C94BD085F3FE4F3983EB5
:10124000D4F3869577956795B795F795E7959F5F62
:10125000C1F7FE2B880F911D9695879597F90895F4
:1012600097F99F6780E870E060E008959FEF80EC59
:10127000089500240A9416161706180609060895FC
:1012800000240A9412161306140605060895092E62
:101290000394000C11F4882352F0BB0F40F4BF2BD1
:1012A00011F460FF04C06F5F7F4F8F4F9F4F089511
:1012B000052E97FB1EF400940E946F0957FD07D07E
:1012C0000E947D0907FC03D04EF40C946F095095E1
:1012D0004095309521953F4F4F4F5F4F0895909522
:1012E0008095709561957F4F8F4F9F4F0895EE0FBA
:1012F000FF1F0590F491E02D0994A1E21A2EAA1B7C
:10130000BB1BFD010DC0AA1FBB1FEE1FFF1FA217B5
:10131000B307E407F50720F0A21BB30BE40BF50BB2
:10132000661F771F881F991F1A9469F7609570953B
:10133000809590959B01AC01BD01CF010895F89473
:02134000FFCFDD
:1013420000000000AF020F023C02FC026D024B02E1
:101352005F02C400D000B801D201EE010601930081
:101362009C00A500AF00B900C40062006800DC0068
:0A137200E900F70083000D0A0000F7
:00000001FF
