:100000000C94E3000C9414010C9414010C9414014E
:100010000C9414010C9414010C9414010C9414010C
:100020000C9414010C9414010C9414010C941401FC
:100030000C9414010C9414010C9414010C941401EC
:100040000C9414010C9414010C9414010C941401DC
:100050000C9414010C9414010C9414010C9493024C
:100060000C943D030C9407030C94DD020C941401D2
:100070000C9414010C9414010C9414010C941401AC
:100080000C9414010C9414010C9414010C9414019C
:100090000C9414010C9414010C9414010C9414018C
:1000A0000C9414010C9414010C9414010C9414017C
:1000B0000C9414010C9414010C9414010C9414016C
:1000C0000C9414010C9414010C9414010C9414015C
:1000D0000C9414010C9414010C9414010C9414014C
:1000E0000C9414010C9416010C9474040C94660185
:1000F0000C9443010C94AC010C9452010C947401C7
:100100000C94F90100002200250028002B002E008D
:100110003100340002010000050108010B0100005C
:100120002100240027002A002D00300033000101A7
:100130000000040107010A01050505050705080877
:100140000808020202020A0A080804040404010161
:100150000101010101010303030303030303040776
:1001600007070C0C0C0C0C0C0C0C0202020206060D
:100170000606060606060B0B0B0B0B0B0B0B010200
:1001800010202008081020401020408002010201A9
:100190000804020101020408102040808040201061
:1001A00008040201800402018040201008040201BA
:1001B0000804020101020408102040800102040822
:1001C00010204080740411241FBECFEFD1E2DEBFA7
:1001D000CDBF00E00CBF12E0A0E0B2E0EAE9F9E038
:1001E00000E00BBF02C007900D92A032B107D9F713
:1001F00022E0A0E2B2E001C01D92A93CB207E1F703
:1002000010E0C3EED0E000E006C021970109802F86
:10021000FE010E94C304C23ED10780E00807A9F78F
:100220000E9454030C94CB040C940000AF92BF9234
:10023000CF92DF92EF92FF920F931F93CF93DF93B2
:100240006C017B018B01040F151FEB015E01AE18E1
:10025000BF08C017D10759F06991D601ED91FC9103
:100260000190F081E02DC6011995892B79F7C50120
:10027000DF91CF911F910F91FF90EF90DF90CF9082
:10028000BF90AF900895FC01538D448D252F30E031
:10029000842F90E0821B930B541710F0CF96089593
:1002A00001970895FC01918D828D981761F0A28DC0
:1002B000AE0FBF2FB11D5D968C91928D9F5F9F7386
:1002C000928F90E008958FEF9FEF0895FC01918D3C
:1002D000828D981731F0828DE80FF11D858D90E0A9
:1002E00008958FEF9FEF0895FC01918D228D892F46
:1002F00090E0805C9F4F821B91098F73992708952E
:100300008CE292E00E94740121E0892B09F420E044
:10031000822F0895FC01A48DA80FB92FB11DA35AF7
:10032000BF4F2C91848D90E001968F739927848F15
:10033000A689B7892C93A089B1898C918370806438
:100340008C93938D848D981306C00288F389E02DD9
:1003500080818F7D80830895EF92FF920F931F938A
:10036000CF93DF93EC0181E0888F9B8D8C8D981368
:100370001AC0E889F989808185FF15C09FB7F89474
:10038000EE89FF896083E889F989808183708064C0
:1003900080839FBF81E090E0DF91CF911F910F910B
:1003A000FF90EF900895F62E0B8D10E00F5F1F4F1A
:1003B0000F731127E02E8C8D8E110CC00FB607FC29
:1003C000FACFE889F989808185FFF5CFCE010E94B7
:1003D0008A01F1CFEB8DEC0FFD2FF11DE35AFF4F9A
:1003E000F0829FB7F8940B8FEA89FB898081806245
:1003F000CFCFCF93DF93EC01888D8823B9F0AA8902
:10040000BB89E889F9898C9185FD03C0808186FDCF
:100410000DC00FB607FCF7CF8C9185FFF2CF80811E
:1004200085FFEDCFCE010E948A01E9CFDF91CF9108
:10043000089580E090E0892B29F00E9480018111CD
:100440000E94000080E090E0892B49F080E090E07D
:10045000892B29F00E94000081110E94000080E099
:1004600090E0892B49F080E090E0892B29F00E94F0
:10047000000081110E94000080E090E0892B49F08B
:1004800080E090E0892B29F00E94000081110C94FB
:1004900000000895CF93DF9390E0FC01E258FE4FF7
:1004A0002491885C9E4FFC0184918823C9F090E0E0
:1004B000880F991FFC01E25EFE4FA591B491FC01EB
:1004C000EC5FFE4FC591D49161110DC09FB7F894B8
:1004D0008C91209582238C938881282328839FBF29
:1004E000DF91CF910895623051F49FB7F8943C9119
:1004F000822F809583238C93E8812E2BEFCF8FB7AB
:10050000F894EC912E2B2C938FBFEACFFC01019035
:100510000020E9F73197AF01481B590BBC018CE271
:1005200092E00C9416011F920F920FB60F921124B5
:100530002F933F938F939F93AF93BF938091280204
:1005400090912902A0912A02B0912B0230912702AA
:1005500023E0230F2D3758F50196A11DB11D2093DF
:1005600027028093280290932902A0932A02B09335
:100570002B028091230290912402A0912502B09138
:1005800026020196A11DB11D80932302909324029F
:10059000A0932502B0932602BF91AF919F918F91B6
:1005A0003F912F910F900FBE0F901F90189526E846
:1005B000230F0296A11DB11DD2CF1F920F920FB62D
:1005C0000F9211240BB60F922F933F934F935F938B
:1005D0006F937F938F939F93AF93BF93EF93FF930B
:1005E0008CE292E00E948A01FF91EF91BF91AF915E
:1005F0009F918F917F916F915F914F913F912F913B
:100600000F900BBE0F900FBE0F901F9018951F926A
:100610000F920FB60F9211240BB60F922F938F9358
:100620009F93EF93FF93E0913C02F0913D02808114
:10063000E0914202F091430282FD1DC090818091C1
:1006400045028F5F8F7320914602821741F0E0913F
:100650004502F0E0E45DFD4F958F80934502FF91E8
:10066000EF919F918F912F910F900BBE0F900FBE26
:100670000F901F9018958081F2CF1F920F920FB6A6
:100680000F9211248F939F938EB590E09093210247
:100690008093200281E0809322029F918F910F909E
:1006A0000FBE0F901F901895CF93DF93CDB7DEB795
:1006B000A1970FB6F894DEBF0FBECDBF789484B576
:1006C000826084BD84B5816084BD85B5826085BD4E
:1006D00085B5816085BD80916E00816080936E00DC
:1006E00010928100809181008260809381008091CE
:1006F000810081608093810080918000816080937F
:1007000080008091B10084608093B1008091B0003E
:1007100081608093B000809191008260809391000D
:100720008091910081608093910080919000816020
:10073000809390008091A10082608093A1008091BD
:10074000A10081608093A1008091A00081608093CE
:10075000A00080912101826080932101809121017C
:10076000816080932101809120018160809320012C
:1007700080917A00846080937A0080917A00826010
:1007800080937A0080917A00816080937A008091D2
:100790007A00806880937A001092C100E0913C0258
:1007A000F0913D0282E08083E0913802F0913902BD
:1007B0001082E0913A02F0913B028FEC808310921C
:1007C0004402E0914002F091410286E08083E09192
:1007D0003E02F0913F02808180618083E0913E0281
:1007E000F0913F02808188608083E0913E02F09129
:1007F0003F02808180688083E0913E02F0913F0259
:1008000080818F7D808362E085E30E944A0260E000
:1008100083E30E944A0260E084E30E944A028CB5AE
:1008200080648CBD8CB580688CBD8AE0882E912C4C
:10083000A12CB12C809122028823E9F182E192E07F
:100840000E948602C0902002D09021020D2C000C44
:10085000EE08FF08F7FE32C06DE28CE292E00E94E3
:10086000AC0122273327A9012C193D094E095F0944
:1008700019A2CE0181967C01CA01B901A50194019A
:100880000E94A104605DF70162937F01211531058B
:100890004105510589F7E114F10419F0C7010E94DF
:1008A00086028AE192E00E9486028CE192E00E9438
:1008B0008602109222020E941902BCCFA701960163
:1008C00019A2CE0181967C01CA01B901A50194014A
:1008D0000E94A104605DF70162937F01211531053B
:1008E0004105510589F7D7CFECE2F2E0138212827D
:1008F00088EE93E0A0E0B0E084839583A683B7837D
:1009000084E092E09183808385EC90E095878487F2
:1009100084EC90E09787868780EC90E0918B808BC9
:1009200081EC90E0938B828B82EC90E0958B848BB2
:1009300086EC90E0978B868B118E128E138E148E20
:100940000895A1E21A2EAA1BBB1BFD010DC0AA1F10
:10095000BB1FEE1FFF1FA217B307E407F50720F028
:10096000A21BB30BE40BF50B661F771F881F991FA3
:100970001A9469F760957095809590959B01AC01EC
:10098000BD01CF010895EE0FFF1F881F8BBF079099
:0A099000F691E02D1994F894FFCFC2
:10099A0000000000AC0116014301F9017401520183
:1009AA0066014C696768743A200025000D0A000048
:00000001FF
