:020000040040BA
:1000000000040020C1004000C9004000CB004000B7
:10001000CD004000CF004000D100400000000000B3
:10002000000000000000000000000000D3004000BD
:10003000D500400000000000D7004000D90040007B
:10004000DB004000DB004000DB004000DB00400044
:10005000DB004000DB004000DB004000000000004F
:10006000DB004000DB00400000000000DB0040003F
:10007000DB004000DB004000DB004000DB00400014
:10008000000000000000000000000000DB00400055
:10009000DB004000DB00400000000000DB0040000F
:1000A000DB004000DB004000DB004000DB004000E4
:1000B000DB004000DB004000DB004000DB004000D4
:1000C0000948804709480047FEE7FEE7FEE7FEE7EC
:1000D000FEE7FEE7FEE7FEE7FEE7FEE70448054928
:1000E000054A064B70470000090140008D014000A1
:1000F0000000002000040020000200200002002078
:10010000704770477047000040F26840C4F20E002C
:100110004FF4007244F20031C0F8982540F2011209
:10012000C5F24D01C0F23712C16740F8482C00BF3C
:100130000268D207FCD048F20162C2F20F0240F816
:10014000402C00BF02689207FCD550F8382C0223DF
:1001500063F3061240F8382C02681207FCD52222FD
:1001600040F8382C02681207FCD5002240F8682CB1
:100170004FF4E052013140F8582CC16741F254402D
:10018000C4F20E004FF40041016070474FF00108C7
:100190004FF001094FF0010A4FF440214FF4403273
:1001A0004FF42043324E346804F00105002DF9D09D
:1001B00000F04CF800F051F800F041F8491E00D072
:1001C00010E04FF4402188F00108B8F1010F00D091
:1001D00004E04FF00104274D2C6003E04FF00104D0
:1001E000254D2C6000F02BF8521E00D010E04FF48B
:1001F000403289F00109B9F1010F00D004E04FF05D
:1002000002041C4D2C6003E04FF002041A4D2C60D8
:1002100000F015F85B1E00D010E04FF420438AF088
:10022000010ABAF1010F00D004E04FF00404114DAF
:100230002C6003E04FF004040F4D2C60BCE70C4E23
:10024000346804F00205022D0CD070474FF007040B
:100250000A4D2C600A4D2C6070474FF00704054D85
:100260002C6070474FF00704034D2C608EE70000B0
:100270004C100E40300E0E40340E0E40000E0E405C
:04028000100E0E400E
:040000050040018D29
:00000001FF
