:100000000C9425010C9456010C9456010C94560145
:100010000C9456010C9456010C9456010C94560104
:100020000C9456010C9456010C9456010C945601F4
:100030000C9456010C9456010C9456010C945601E4
:100040000C9456010C9456010C9456010C945601D4
:100050000C9456010C9456010C9456010C949D037B
:100060000C9456010C9456010C9456010C945601B4
:100070000C9456010C9456010C9456010C945601A4
:100080000C9456010C9456010C9456010C94560194
:100090000C9456010C9456010C9456010C94560184
:1000A0000C9456010C9456010C9456010C94560174
:1000B0000C9456010C9456010C9456010C94560164
:1000C0000C9456010C9456010C9456010C94560154
:1000D0000C9456010C9456010C9456010C94560144
:1000E0000C9456010C940A020C9404020C945502D0
:1000F0000C9412020C94F3010C94FA010C9400027B
:100100000C94EB010C942A020C9418020C940E022D
:100110000C94EF010C944C050C941C020C94970366
:100120000C9420020C94D4010C94F7010C94D90186
:100130000C9456020C94CE040C9426020C94770175
:1001400000000A0B02090C0D0E0807030401000051
:10015000000000000000000000000000000000009F
:10016000000000000000000000000000121110005C
:10017000000000000000000000000000000000007F
:1001800000000000000000002200250028002B00D5
:100190002E003100340002010000050108010B01AE
:1001A00000002100240027002A002D003000330029
:1001B00001010000040107010A0105050505070505
:1001C00008080808020202020A0A080804040404D3
:1001D00001010101010101010303030303030303FF
:1001E000040707070C0C0C0C0C0C0C0C020202028E
:1001F00006060606060606060B0B0B0B0B0B0B0B77
:100200000102102020080810204010204080020128
:10021000020108040201010204081020408080400D
:10022000201008040201800402018040201008040C
:1002300002010804020101020408102040800102AA
:10024000040810204080CE044C0511241FBECFEFBF
:10025000D1E2DEBFCDBF00E00CBF22E0A8E1B2E0FA
:1002600001C01D92A734B207E1F712E0A0E0B2E0AE
:10027000EAE5FFE000E00BBF02C007900D92A83155
:10028000B107D9F711E0C4E2D1E000E006C0219740
:100290000109802FFE010E946905C332D10780E069
:1002A0000807A9F70E94E7030C949B070C94000031
:1002B00090E0FC01E050FE4F249186549E4FFC01DB
:1002C0008491882399F090E0880F991FFC01E056F3
:1002D000FE4FA591B491FC01EA57FE4F8591949190
:1002E0008FB7F894EC91E22BEC938FBF0895AF9207
:1002F000BF92CF92DF92EF92FF920F931F93CF9313
:10030000DF936C017B018B01040F151FEB015E0174
:10031000AE18BF08C017D10759F06991D601ED9109
:10032000FC910190F081E02DC6011995892B79F798
:10033000C501DF91CF911F910F91FF90EF90DF905A
:10034000CF90BF90AF900895282F30E0F901E05C86
:10035000FE4F9491F901E050FE4F449126543E4FD8
:10036000F9012491222309F435C0992311F1915008
:100370009231F8F4E92FF0E08827EE53FE4F8F4FCB
:100380000C946905F301F701D401EB01EF01D901E8
:10039000FA01000204020A020E02120218021C02F2
:1003A000D901200226022A02809180008F77809353
:1003B0008000E22FF0E0EE0FFF1FEA57FE4FA591FD
:1003C000B4918FB7F894EC91611148C040954E23D9
:1003D0004C938FBF0895809180008F7DE8CF8091EE
:1003E0008000877FE4CF84B58F7784BDE2CF84B56A
:1003F0008F7DFBCF8091B0008F778093B000D9CFF5
:100400008091B0008F7DF9CF809190008F7780939D
:100410009000CFCF809190008F7DF9CF8091900098
:10042000877FF5CF8091A0008F778093A000C1CF08
:100430008091A0008F7DF9CF8091A000877FF5CFBC
:10044000809120018F7780932001B3CF809120018C
:100450008F7DF9CF80912001877FF5CF4E2BB8CFCC
:100460003FB7F89480911D0290911E02A0911F0247
:10047000B091200226B5A89B05C02F3F19F0019628
:10048000A11DB11D3FBFBA2FA92F982F8827BC01EE
:10049000CD01620F711D811D911D42E0660F771F16
:1004A000881F991F4A95D1F70895089590E080E03C
:1004B0000895CF93DF93EC0160E08E810E94A40148
:1004C00061E08E810E94A40160E08E810E94A401FF
:1004D0008BE891E00197F1F7DF91CF910895CF92EA
:1004E000DF92EF92FF920F931F93CF93DF936C01F4
:1004F0007C0187E0E80EF11CD0E0C0E0062F10E0A0
:10050000B8010C2E02C0759567950A94E2F76170E8
:10051000F70181917F010E94A4012196C430D10589
:1005200079F7C601DF91CF911F910F91FF90EF9066
:10053000DF90CF900C945902CF92DF92EF92FF920E
:100540000F931F93CF93DF93EC01F62E642F8C81D2
:100550000E94A4018D818F3F19F060E00E94A401E8
:100560000F2D10E08F8584FF25C06E0187E0C80E37
:10057000D11CF12CE12CB8010E2C02C075956795A9
:100580000A94E2F76170F60181916F010E94A40163
:10059000FFEFEF1AFF0A88E0E816F10461F7CE01D9
:1005A000DF91CF911F910F91FF90EF90DF90CF904F
:1005B0000C945902B80184E0759567958A95E1F726
:1005C000CE010E946F026F2DCE01DF91CF911F915E
:1005D0000F91FF90EF90DF90CF900C946F0240E06E
:1005E000682F8BE292E00C949C02CF93DF938230D1
:1005F00029F490913A02986090933A0280933E02D7
:1006000010923F0280E48093400280E18093410297
:1006100080E58093420280912F020E9458018091D0
:1006200030028F3F11F00E945801809131020E94E8
:100630005801CBE2D2E09E012B52324080913A0227
:1006400084FD0AC084E090E02196281739073CF425
:100650008E810E945801EFCF88E090E0F5CF8BE3C8
:100660009DE00197F1F760E080912F020E94A401C4
:1006700060E0809131020E94A401809130028F3F9E
:1006800019F060E00E94A40180913A0284FD39C013
:1006900063E08BE292E00E946F02CBE4D6E4CE01ED
:1006A0000197F1F763E08BE292E00E946F022197DD
:1006B000F1F763E08BE292E00E946F0283E592E043
:1006C0000197F1F762E08BE292E00E946F02809165
:1006D0003A0280620E94EF0284E080933B028CE049
:1006E0000E94EF0281E00E94EF028BE39FE10197FD
:1006F000F1F782E080933C0286E0DF91CF910C9489
:10070000EF0280620E94EF028BE496E40197F1F71A
:1007100080913A0280620E94EF0283E592E00197A5
:10072000F1F780913A0280620E94EF02D0CF41E05F
:100730000E949C0281E090E008951F920F920FB6F4
:100740000F9211242F933F938F939F93AF93BF9357
:100750008091190290911A02A0911B02B0911C0283
:100760003091180223E0230F2D3758F50196A11D73
:10077000B11D209318028093190290931A02A0933E
:100780001B02B0931C0280911D0290911E02A09149
:100790001F02B09120020196A11DB11D80931D0280
:1007A00090931E02A0931F02B0932002BF91AF91BD
:1007B0009F918F913F912F910F900FBE0F901F909F
:1007C000189526E8230F0296A11DB11DD2CF78946B
:1007D00084B5826084BD84B5816084BD85B5826046
:1007E00085BD85B5816085BD80916E0081608093F7
:1007F0006E00109281008091810082608093810060
:10080000809181008160809381008091800081606F
:10081000809380008091B10084608093B1008091CA
:10082000B00081608093B0008091910082608093DD
:10083000910080919100816080939100809190005F
:100840008160809390008091A10082608093A100DC
:100850008091A10081608093A1008091A0008160BF
:100860008093A0008091210182608093210180917A
:10087000210181608093210180912001816080931A
:10088000200180917A00846080937A0080917A00C0
:10089000826080937A0080917A00816080937A00F0
:1008A00080917A00806880937A001092C10082E083
:1008B0000E94F50291E1892E912CCBE3DFE102E069
:1008C00010E020E0A22E20E0B22E209129023091EB
:1008D0002A028091270290912802B401681B790BAB
:1008E000C9010E9455056B01F82E2F5F3F4F3093D1
:1008F0002A022093290281E00E94EF02CE01019793
:10090000F1F7C601B8010E945505843008F083E074
:1009100090913E02891710F08FEF890FE82FF0E0D9
:10092000E55DFD4F84898F0D80680E94EF02409144
:1009300025025091260260912102709122028BE2E1
:1009400092E00E9477010E9430022B013C0184E674
:10095000C82ED12CE12CF12C0E94300264197509AB
:1009600086099709683E734081059105A8F321E047
:10097000C21AD108E108F10888EE480E83E0581E3B
:10098000611C711CC114D104E104F10429F7A11404
:10099000B10409F49ACF0E94000097CF10922E0262
:1009A00010922D028AE092E090932C0280932B0209
:1009B0008DE080932F028FEF809330028CE0809344
:1009C00031028BE0809332028AE08093330289E027
:1009D0008093340288E080933502109236021092A0
:1009E0003702109238021092390210923A0281E0D6
:1009F0000E94F5021092220210922102109224020B
:100A000010922302109226021092250266E070E0F6
:100A100090E080E00E94AA06009709F190932202DC
:100A20008093210225E030E03093240220932302BA
:100A30002091250230912602232B11F4FC01108213
:100A400085E090E0909326028093250262E172E0B7
:100A500080912102909122020E94940714C08091FB
:100A6000210290912202009711F00E94210610921B
:100A70002202109221021092260210922502109258
:100A800024021092230280912502909126029093D5
:100A900028028093270208958091210290912202DA
:100AA000009711F00C942106089597FB072E16F479
:100AB000009407D077FD09D00E94710507FC05D08E
:100AC0003EF4909581959F4F0895709561957F4F65
:100AD0000895EE0FFF1F881F8BBF0790F691E02D42
:100AE0001994AA1BBB1B51E107C0AA1FBB1FA61765
:100AF000B70710F0A61BB70B881F991F5A95A9F7C7
:100B000080959095BC01CD0108950F931F93CF93CD
:100B1000DF938230910510F482E090E0E09145028D
:100B2000F091460230E020E0B0E0A0E0309799F488
:100B30002115310509F44AC0281B390B2430310531
:100B4000D8F58A819B816115710589F1FB01938339
:100B50008283FE0111C040815181028113814817B7
:100B60005907E0F04817590799F4109761F0129669
:100B70000C93129713961C933296CF01DF91CF916D
:100B80001F910F9108950093450210934602F4CFF0
:100B90002115310551F04217530738F0A901DB0147
:100BA0009A01BD01DF01F801C1CFEF01F9CF9093A8
:100BB000460280934502CDCFFE01E20FF31F8193E1
:100BC00091932250310939832883D7CF2091430252
:100BD00030914402232B41F4209102023091030210
:100BE000309344022093430220910002309101028D
:100BF0002115310541F42DB73EB7409104025091C3
:100C00000502241B350BE0914302F0914402E217E8
:100C1000F307A0F42E1B3F0B2817390778F0AC011F
:100C20004E5F5F4F2417350748F04E0F5F1F5093FC
:100C3000440240934302819391939FCFF0E0E0E020
:100C40009CCFCF93DF930097E9F0FC01329713829A
:100C50001282A0914502B0914602ED0130E020E001
:100C60001097A1F420813181820F931F20914302BC
:100C7000309144022817390709F061C0F09344020B
:100C8000E0934302DF91CF910895EA01CE17DF0789
:100C9000E8F54A815B819E0141155105B1F7E901F3
:100CA000FB83EA8349915991C40FD51FEC17FD07C7
:100CB00061F4808191810296840F951FE9019983E7
:100CC0008883828193819B838A83F0E0E0E012969F
:100CD0008D919C9113970097B9F52D913C911197A7
:100CE000CD010296820F931F20914302309144025E
:100CF0002817390739F6309751F5109246021092AD
:100D00004502B0934402A0934302BCCFD383C28375
:100D100040815181840F951FC817D90761F44E5F38
:100D20005F4F88819981480F591F518340838A8181
:100D30009B81938382832115310509F0B0CFF09315
:100D40004602E09345029ECFFD01DC01C0CF138235
:100D50001282D7CF4F925F926F927F928F929F9223
:100D6000AF92BF92CF92DF92EF92FF920F931F93B9
:100D7000CF93DF938C01009799F4CB01DF91CF9152
:100D80001F910F91FF90EF90DF90CF90BF90AF90A9
:100D90009F908F907F906F905F904F900C948505FF
:100DA000FC01E60FF71F9C0122503109E217F307FF
:100DB00008F4AEC0D901CD91DC911197C617D707C1
:100DC00020F1C530D10578F0CE010497861797073A
:100DD00050F0C61BD70B2297C193D1936D937C9390
:100DE000CF010E942106C801DF91CF911F910F9181
:100DF000FF90EF90DF90CF90BF90AF909F908F903B
:100E00007F906F905F904F9008955B01AC1ABD0A80
:100E10004C018C0E9D1EA0914502B0914602512CB2
:100E2000412CF12CE12C109731F5809143029091E7
:100E300044028815990509F05CC04616570608F06B
:100E400058C08091000290910102009741F48DB743
:100E50009EB74091040250910502841B950BE81740
:100E6000F90708F055C0F0934402E0934302F901FA
:100E700071836083B8CF8D919C91119712966C907D
:100E8000129713967C901397A815B90559F56C0124
:100E900042E0C40ED11CCA14DB0420F1AC014A1993
:100EA0005B09DA011296159780F062827382518392
:100EB0004083D9016D937C93E114F10471F0D70163
:100EC0001396FC93EE9312978ECF22968C0F9D1F54
:100ED000F90191838083F301EFCFF0934602E09311
:100EE000450281CF4816590608F42C017D01D30133
:100EF0009ACFCB010E9485057C01009749F0AE0195
:100F0000B8010E948B07C8010E94210687016BCFA0
:100F100010E000E068CFFB01DC0102C001900D92FF
:100F200041505040D8F70895FB01DC0101900D922B
:100F30000020E1F7089511E0C4E2D1E000E006C02E
:100F4000802FFE010E9469052196011DC532D1073F
:0A0F500080E00807A9F7F894FFCF2E
:100F5A000000470280000000000097037701560254
:080F6A0055024D616864690045
:00000001FF
