:100000000C943B010C946C010C946C010C946C01ED
:100010000C946C010C946C010C946C010C946C01AC
:100020000C946C010C946C010C946C010C946C019C
:100030000C946C010C946C010C946C010C946C018C
:100040000C946C010C946C010C946C010C946C017C
:100050000C946C010C946C010C946C010C9446058E
:100060000C946C010C9410050C94E6040C946C0137
:100070000C946C010C946C010C946C010C946C014C
:100080000C946C010C946C010C946C010C946C013C
:100090000C946C010C946C010C946C010C946C012C
:1000A0000C946C010C946C010C946C010C946C011C
:1000B0000C946C010C946C010C946C010C946C010C
:1000C0000C946C010C946C010C946C010C946C01FC
:1000D0000C946C010C946C010C946C010C946C01EC
:1000E0000C946C010C948A030C9486030C946803A2
:1000F0000C9490050C948E030C94E4020C94510221
:100100000C942E020C946E030C943D020C94360455
:100110000C9498030C9480030C94C5030C945D0319
:100120000C9401020C9494030C9453030C94590303
:100130000C94F6030C9478030C9465030C946103FF
:100140000C9493030C947C030C9497020C945F0220
:100150000C94720300002100240027002A002D00C7
:100160003000330001010000040107010A01000012
:100170002200250028002B002E003100340002014F
:100180000000050108010B010000200023002600EB
:1001900029002C002F00320000010000030106019D
:1001A00009010505050507050808080802020202FD
:1001B0000A0A080804040404010101010101010103
:1001C0000303030303030303040707070C0C0C0CCE
:1001D0000C0C0C0C020202020606060606060606B7
:1001E0000B0B0B0B0B0B0B0B010210202008081044
:1001F0002040102040800201020108040201010297
:10020000040810204080804020100804020180046F
:1002100002018040201008040201080402010102CA
:1002200004081020408001020408102040800000D3
:100230000A0B02090C0D0E08070304010000000060
:1002400000000000000000000000000000000000AE
:10025000000000000000000000001211100000006B
:10026000000000000000000000000000000000008E
:1002700000000000900511241FBECFEFD1E2DEBFC9
:10028000CDBF00E00CBF12E0A0E0B2E0E0E8F0E19A
:1002900000E00BBF02C007900D92AA34B107D9F756
:1002A00023E0AAE4B2E001C01D92AF35B207E1F746
:1002B00011E0CBE3D1E000E006C021970109802FD7
:1002C000FE010E943608CA33D10780E00807A9F76B
:1002D0000E941E060C943E080C94000096E0899F34
:1002E000D0011124A051BD4F90967C936E935F97DF
:1002F00091E091969C939197E0915D03F0915E035C
:1003000090915C03992339F0309751F0811108C026
:1003100080910C031994309719F05C968C91FACF68
:100320000895CF92DF92EF92FF920F931F9396E082
:10033000899FF0011124E051FD4F11A2278D30A1BA
:100340002130310551F178F02230310509F451C0E6
:100350002330310509F452C01F910F91FF90EF90A7
:10036000DF90CF9008956623B9F361E070E00E94BA
:100370006E012FB7F89480914F0290915002A09196
:100380005102B09152022FBF8093480390934903CA
:10039000A0934A03B0934B03DFCF9FB7F894C0906C
:1003A0004F02D0905002E0905102F09052029FBF55
:1003B000009148031091490320914A0330914B0367
:1003C000C01AD10AE20AF30A00915A0310915B03A2
:1003D00030E020E00C151D052E053F0550F462E0CD
:1003E00070E01F910F91FF90EF90DF90CF900C94F1
:1003F0006E016111B1CF63E070E0F3CF70E060E0B7
:10040000F0CFAF92BF92CF92DF92EF92FF920F9315
:100410001F93CF93DF936C017B018B01040F151F9A
:10042000EB015E01AE18BF08C017D10759F0699102
:10043000D601ED91FC910190F081E02DC601199556
:10044000892B79F7C501DF91CF911F910F91FF9013
:10045000EF90DF90CF90BF90AF900895FC01538D47
:10046000448D252F30E0842F90E0821B930B54178E
:1004700010F0CF96089501970895FC01918D828D1B
:10048000981761F0A28DAE0FBF2FB11D5D968C91B4
:10049000928D9F5F9F73928F90E008958FEF9FEFF3
:1004A0000895FC01918D828D981731F0828DE80FAF
:1004B000F11D858D90E008958FEF9FEF0895FC0169
:1004C000918D228D892F90E0805C9F4F821B910936
:1004D0008F739927089583E592E00E945F0221E0DF
:1004E000892B09F420E0822F0895FC01A48DA80F28
:1004F000B92FB11DA35ABF4F2C91848D90E0019666
:100500008F739927848FA689B7892C93A089B18985
:100510008C91837080648C93938D848D981306C026
:100520000288F389E02D80818F7D80830895EF928A
:10053000FF920F931F93CF93DF93EC0181E0888F9D
:100540009B8D8C8D98131AC0E889F989808185FF6D
:1005500015C09FB7F894EE89FF896083E889F9890F
:1005600080818370806480839FBF81E090E0DF9111
:10057000CF911F910F91FF90EF900895F62E0B8D64
:1005800010E00F5F1F4F0F731127E02E8C8D8E111F
:100590000CC00FB607FCFACFE889F989808185FF86
:1005A000F5CFCE010E947502F1CFEB8DEC0FFD2F40
:1005B000F11DE35AFF4FF0829FB7F8940B8FEA8941
:1005C000FB8980818062CFCFCF93DF93EC01888D50
:1005D0008823B9F0AA89BB89E889F9898C9185FDBE
:1005E00003C0808186FD0DC00FB607FCF7CF8C914C
:1005F00085FFF2CF808185FFEDCFCE010E9475028D
:10060000E9CFDF91CF91089580E090E0892B29F028
:100610000E946B0281110E94000080E090E0892B13
:1006200049F080E090E0892B29F00E9400008111C0
:100630000E94000080E090E0892B49F080E090E08B
:10064000892B29F00E94000081110E94000080E0A7
:1006500090E0892B49F080E090E0892B29F00E94FE
:10066000000081110C94000008958150823108F03F
:100670005AC0E82FF0E08827EF5BFC4F8F4F0C94B7
:10068000360861036503530359035D03930368034D
:100690006E03720378037C03800386038A0393034B
:1006A0008E0394039803809180008F77809380005D
:1006B0000895809180008F7DF9CF80918000877FA1
:1006C000F5CF84B58F7784BD089584B58F7DFBCF3A
:1006D0008091B0008F778093B00008958091B00032
:1006E0008F7DF9CF809190008F778093900008954F
:1006F000809190008F7DF9CF80919000877FF5CF1A
:100700008091A0008F778093A00008958091A00031
:100710008F7DF9CF8091A000877FF5CF8091200158
:100720008F77809320010895809120018F7DF9CFEC
:1007300080912001877FF5CFCF93DF93282F30E082
:10074000F901E25DFD4F8491F901E851FE4FD4912A
:10075000F901EE55FE4FC491CC23A1F081110E9406
:100760003503EC2FF0E0EE0FFF1FE857FE4FA59189
:10077000B491EC91ED2381E090E009F480E0DF9109
:10078000CF91089580E090E0FACF862F0C949C03DF
:100790001F93CF93DF93282F30E0F901E25DFD4FE7
:1007A0008491F901E851FE4FD491F901EE55FE4FC5
:1007B000C491CC23A9F0162F81110E943503EC2F90
:1007C000F0E0EE0FFF1FE259FE4FA591B4918FB7F5
:1007D000F894EC91111108C0D095DE23DC938FBF03
:1007E000DF91CF911F910895DE2BF8CF862F642FD4
:1007F0000C94C803CF93DF9390E0FC01E851FE4FC7
:1008000024918E559E4FFC0184918823C9F090E07D
:10081000880F991FFC01EC5AFE4FA591B491FC0181
:10082000E259FE4FC591D49161110DC09FB7F89464
:100830008C91209582238C938881282328839FBFC5
:10084000DF91CF910895623051F49FB7F8943C91B5
:10085000822F809583238C93E8812E2BEFCF8FB747
:10086000F894EC912E2B2C938FBFEACF862F642F18
:100870000C94FA033FB7F89480914B0290914C028C
:10088000A0914D02B0914E0226B5A89B05C02F3F06
:1008900019F00196A11DB11D3FBFBA2FA92F982FA6
:1008A0008827BC01CD01620F711D811D911D42E0A1
:1008B000660F771F881F991F4A95D1F7089542E068
:1008C00050E068E372E083E592E00C9401028F92BD
:1008D0009F92AF92BF92CF92DF92EF92FF920F93CF
:1008E0001F93CF93DF93882309F463C0C82F8FEC45
:1008F0008C0F8930C0F0C332B1F04EE050E06BE3B2
:1009000072E083E592E00E940102DF91CF911F9196
:100910000F91FF90EF90DF90CF90BF90AF909F909E
:100920008F900C945F046C2F83E592E00E949702F5
:100930000E945F0403E112E060E0F80181918F0101
:100940000E94C803F2E00C311F07B1F7D1E3CD17C5
:1009500084F1ED2F0D2E000CFF0BEE51FE4F61E0E8
:1009600080810E94C8030E943A044B015C0184E626
:10097000C82ED12CE12CF12C0E943A046819790977
:100980008A099B09683E734081059105A8F321E01F
:10099000C21AD108E108F10888EE880E83E0981E9B
:1009A000A11CB11CC114D104E104F10429F7DF5FDB
:1009B000CECFDF91CF911F910F91FF90EF90DF90FD
:1009C000CF90BF90AF909F908F9008951F920F92FD
:1009D0000FB60F9211240BB60F922F933F934F93A4
:1009E0005F936F937F938F939F93AF93BF93EF9397
:1009F000FF9383E592E00E947502FF91EF91BF9112
:100A0000AF919F918F917F916F915F914F913F91A6
:100A10002F910F900BBE0F900FBE0F901F90189547
:100A20001F920F920FB60F9211240BB60F922F93B5
:100A30008F939F93EF93FF93E0916302F091640291
:100A40008081E0916902F0916A0282FD1DC090816F
:100A500080916C028F5F8F7320916D02821741F03D
:100A6000E0916C02F0E0ED5AFD4F958F80936C029F
:100A7000FF91EF919F918F912F910F900BBE0F904F
:100A80000FBE0F901F9018958081F2CF1F920F928A
:100A90000FB60F9211242F933F938F939F93AF9391
:100AA000BF9380914F0290915002A0915102B0915A
:100AB000520230914A0223E0230F2D3758F5019658
:100AC000A11DB11D20934A0280934F0290935002C2
:100AD000A0935102B093520280914B0290914C022C
:100AE000A0914D02B0914E020196A11DB11D8093BF
:100AF0004B0290934C02A0934D02B0934E02BF91D3
:100B0000AF919F918F913F912F910F900FBE0F90BA
:100B10001F90189526E8230F0296A11DB11DD2CF74
:100B2000109256021092550288EE93E0A0E0B0E0D9
:100B30008093570290935802A0935902B0935A029F
:100B400080E292E0909354028093530285EC90E00F
:100B50009093600280935F0284EC90E09093620235
:100B60008093610280EC90E0909364028093630232
:100B700081EC90E0909366028093650282EC90E0B5
:100B8000909368028093670286EC90E090936A02EB
:100B90008093690210926C0210926D0210926E02A4
:100BA00010926F021092F2021092F6021092F50269
:100BB0001092F70282E392E09093F1028093F002A8
:100BC000ECE0F3E01082148213821582369683E003
:100BD000E834F807B9F783E092E0909353038093E9
:100BE000520380E092E0909355038093540384E095
:100BF0008093560383E08093570387E092E09093BD
:100C00005103809350038AE090E0909359038093BE
:100C1000580384EF91E090935B0380935A03109202
:100C20005E0310925D0310924C0310924D031092DC
:100C30004E0310924F0310925C030895789484B58C
:100C4000826084BD84B5816084BD85B5826085BDC8
:100C500085B5816085BD80916E00816080936E0056
:100C60001092810080918100826080938100809148
:100C700081008160809381008091800081608093F9
:100C800080008091B10084608093B1008091B000B9
:100C900081608093B0008091910082608093910088
:100CA000809191008160809391008091900081609B
:100CB000809390008091A10082608093A100809138
:100CC000A10081608093A1008091A0008160809349
:100CD000A0008091210182608093210180912101F7
:100CE00081608093210180912001816080932001A7
:100CF00080917A00846080937A0080917A0082608B
:100D000080937A0080917A00816080937A0080914C
:100D10007A00806880937A001092C100E0916302AB
:100D2000F091640282E08083E0915F02F0916002C2
:100D30001082E0916102F09162028FEC8083109248
:100D40006B02E0916702F091680286E08083E09197
:100D50006502F0916602808180618083E091650286
:100D6000F0916602808188608083E0916502F09155
:100D70006602808180688083E0916502F09166025E
:100D800080818F7D808361E086E30E94FA0361E0C9
:100D900087E30E94FA0361E088E30E94FA0361E0BE
:100DA00089E30E94FA0361E08AE30E94FA0361E0AA
:100DB0008BE30E94FA0361E08CE30E94FA0361E096
:100DC0008DE30E94FA0361E08EE30E94FA0322247D
:100DD0002394812C912C5401839466246A94762C5C
:100DE00056E0352E20925C038FB7F89440914F0265
:100DF0005091500260915102709152028FBF8091C8
:100E00004C0390914D03A0914E03B0914F03481BAA
:100E1000590B6A0B7B0B8091580390915903B0E0FA
:100E2000A0E084179507A607B70708F019C1C0E02E
:100E300080915603C81760F4E0915203F091530378
:100E4000EC0FF11D62E080810E94FA03CF5FF0CFCA
:100E5000512C80915703581608F05FC0052D10E003
:100E6000E0915403F0915503E00FF11F61E08081A0
:100E70000E94FA03E0915403F0915503E00FF11F33
:100E800060E080810E94C803D501C401052C04C024
:100E9000880F991FAA1FBB1F0A94D2F76C017C010F
:100EA000E094F094412C809156034816F8F4C42D38
:100EB000D0E0E0915203F0915303EC0FFD1F8081CD
:100EC0000E949C032496CC0FDD1FC051DD4F892B5F
:100ED00041F4888199818C299D2999838883439441
:100EE000E2CF888199818E219F21F7CFE091540331
:100EF000F0915503E00FF11F61E080810E94C8036B
:100F00008091540390915503080F191F60E0F80178
:100F100080810E94FA0353949CCFC0EFD2E0FE017F
:100F2000878D90A1892B21F4148E768E658E11A267
:100F3000369683E0EC32F80799F710E0809156037B
:100F4000181708F052C000E0E12EF12CEE0CFF1C47
:100F5000F701E850FD4F7F0120915703021708F079
:100F600042C0F70160817181002E02C076956795BD
:100F70000A94E2F7129F90011124200F311DE0EF37
:100F8000F2E080E0458D568D2417350709F46CC0DA
:100F90008F5F36968A30B1F760FF23C0E0EFF2E052
:100FA00090E080E0448D411117C0E0915003F09132
:100FB0005103E20FF31F6081389EF001399EF00D5E
:100FC0001124E051FD4F648F368F258F10A2178EAC
:100FD00061E00E94910105C0019636968A30910524
:100FE00009F70F5FB9CF1F5FA9CF80E099A19111D9
:100FF000892F2696F3E0CC32DF07C1F79FB7F8942C
:1010000040914F02509150026091510270915202F2
:101010009FBF40934C0350934D0360934E037093D6
:101020004F038823E9F0809111038823C9F0809150
:101030000F0390911003019799F480910C030E9483
:10104000670483E592E00E945F02892B31F083E51B
:1010500092E00E943D020E9467040E940403C2CEF7
:1010600010925C0380E0EBCF6170B3CFEE0FFF1FF7
:10107000881F8BBF0790F691E02D1994F894FFCF4D
:101080000708090605040331323334353637383959
:101090002A3023363738393A3B3C3D3E00000000C9
:1010A000970201022E02E4025F023D02510200009B
:1010B00000003604F603C5030D0A00496E76616C24
:0A10C0006964206E756D62657200B0
:00000001FF
