:100000000C9438010C9469010C9469010C946901F9
:100010000C9469010C9469010C9469010C946901B8
:100020000C9469010C9469010C9469010C946901A8
:100030000C9469010C9469010C9469010C94690198
:100040000C9469010C9469010C9469010C94690188
:100050000C9469010C9469010C9469010C944A0593
:100060000C9469010C9469010C9469010C94690168
:100070000C9469010C9469010C9469010C94690158
:100080000C9469010C9469010C9469010C94690148
:100090000C9469010C9469010C9469010C94690138
:1000A0000C9469010C9469010C9469010C94690128
:1000B0000C9469010C9469010C9469010C94690118
:1000C0000C9469010C9469010C9469010C94690108
:1000D0000C9469010C9469010C9469010C946901F8
:1000E0000C9469010C94BB020C9464020C94880378
:1000F0000C945B020C9484020C9487030C9472029F
:100100000C9468020C9476020C943B080C944902FF
:100110000C94FE010C94DA080C947C020C94890275
:100120000C944F020C948A020C9453020C945702C4
:100130000C942C030C94EC020C9480020C948E0210
:100140000C945E020C94E9040C946E0200002100F1
:10015000240027002A002D00300033000101000098
:10016000040107010A0100002200250028002B00DD
:100170002E003100340002010000050108010B01CE
:10018000000020002300260029002C002F00320050
:100190000001000003010601090105050505070529
:1001A00008080808020202020A0A080804040404F3
:1001B000010101010101010103030303030303031F
:1001C000040707070C0C0C0C0C0C0C0C02020202AE
:1001D00006060606060606060B0B0B0B0B0B0B0B97
:1001E0000102102020080810204010204080020149
:1001F000020108040201010204081020408080402E
:10020000201008040201800402018040201008042C
:1002100002010804020101020408102040800102CA
:1002200004081020408000000A0B02090C0D0E0883
:1002300007030401000000000000000000000000AF
:1002400000000000000000000000000000000000AE
:10025000000012111000000000000000000000006B
:100260000000000000000000000000003B08DA0869
:1002700011241FBECFEFD1E2DEBFCDBF00E00CBF27
:1002800023E0A6E7B2E001C01D92A831B207E1F772
:1002900012E0A0E0B2E0E6E3F6E100E00BBF02C04E
:1002A00007900D92A637B107D9F711E0C7E3D1E067
:1002B00000E006C021970109802FFE010E94E2089C
:1002C000C633D10780E00807A9F70E9494050C9473
:1002D000090B0C94000096E0899FD0011124A357CC
:1002E000BD4F90967C936E935F9791E091969C930F
:1002F0009197E091FA02F091FB029091F902992313
:1003000039F0309751F0811108C08091A9021994F9
:10031000309719F05C968C91FACF0895CF92DF92C6
:10032000EF92FF920F931F9396E0899FF0011124A3
:10033000E357FD4F11A2278D30A12130310551F136
:1003400078F02230310509F451C02330310509F429
:1003500052C01F910F91FF90EF90DF90CF900895C2
:100360006623B9F361E070E00E946B012FB7F89447
:100370008091890290918A02A0918B02B0918C02A7
:100380002FBF8093E5029093E602A093E702B0931B
:10039000E802DFCF9FB7F894C0908902D0908A021C
:1003A000E0908B02F0908C029FBF0091E5021091CB
:1003B000E6022091E7023091E802C01AD10AE20A6F
:1003C000F30A0091F7021091F80230E020E00C15DA
:1003D0001D052E053F0550F462E070E01F910F915E
:1003E000FF90EF90DF90CF900C946B016111B1CF33
:1003F00063E070E0F3CF70E060E0F0CFAF92BF92C7
:10040000CF92DF92EF92FF920F931F93CF93DF93E0
:100410006C017B018B01040F151FEB015E01AE180F
:10042000BF08C017D10759F06991D601ED91FC9131
:100430000190F081E02DC6011995892B79F7C5014E
:10044000DF91CF911F910F91FF90EF90DF90CF90B0
:10045000BF90AF9008958150823108F05AC0E82FC4
:10046000F0E08827E95CFD4F8F4F0C94E2085702BB
:100470005B0249024F02530289025E026402680273
:100480006E02720276027C028002890284028A0273
:100490008E02809180008F778093800008958091F4
:1004A00080008F7DF9CF80918000877FF5CF84B564
:1004B0008F7784BD089584B58F7DFBCF8091B00088
:1004C0008F778093B00008958091B0008F7DF9CF31
:1004D000809190008F778093900008958091900094
:1004E0008F7DF9CF80919000877FF5CF8091A0001C
:1004F0008F778093A00008958091A0008F7DF9CF21
:100500008091A000877FF5CF809120018F77809325
:1005100020010895809120018F7DF9CF80912001E5
:10052000877FF5CFCF93DF93282F30E0F901EA5D85
:10053000FD4F8491F901E052FE4FD491F901E65646
:10054000FE4FC491CC23A1F081110E942B02EC2F0D
:10055000F0E0EE0FFF1FE058FE4FA591B491EC9133
:10056000ED2381E090E009F480E0DF91CF910895E0
:1005700080E090E0FACF862F0C9492021F93CF93E5
:10058000DF93282F30E0F901EA5DFD4F8491F901F6
:10059000E052FE4FD491F901E656FE4FC491CC23B0
:1005A000A9F0162F81110E942B02EC2FF0E0EE0F24
:1005B000FF1FEA59FE4FA591B4918FB7F894EC91C3
:1005C000111108C0D095DE23DC938FBFDF91CF914E
:1005D0001F910895DE2BF8CF862F642F0C94BE0256
:1005E000CF93DF9390E0FC01E052FE4F24918656BA
:1005F0009E4FFC0184918823C9F090E0880F991FD9
:10060000FC01E45BFE4FA591B491FC01EA59FE4F59
:10061000C591D49161110DC09FB7F8948C9120952C
:1006200082238C938881282328839FBFDF91CF91D9
:100630000895623051F49FB7F8943C91822F8095D1
:1006400083238C93E8812E2BEFCF8FB7F894EC9116
:100650002E2B2C938FBFEACF862F642F0C94F002A1
:100660003FB7F8948091770290917802A091790237
:10067000B0917A0226B5A89B05C02F3F19F00196CC
:10068000A11DB11D3FBFBA2FA92F982F8827BC01EC
:10069000CD01620F711D811D911D42E0660F771F14
:1006A000881F991F4A95D1F708958F929F92AF9214
:1006B000BF92CF92DF92EF92FF924B015C010E94BA
:1006C00030036B017C010E9430036C197D098E0997
:1006D0009F09683E734081059105A8F321E0821AC5
:1006E0009108A108B10888EEC80E83E0D81EE11C6D
:1006F000F11C81149104A104B10429F7FF90EF903B
:10070000DF90CF90BF90AF909F908F900895089505
:1007100090E080E00895FC0101900020E9F7319716
:10072000AF01481B590BBC018CEF92E00C94FE0109
:10073000CF93DF93EC0160E08E810E94BE0261E006
:100740008E810E94BE0260E08E810E94BE028BE814
:1007500091E00197F1F7DF91CF910895CF92DF9269
:10076000EF92FF920F931F93CF93DF936C017C0165
:1007700087E0E80EF11CD0E0C0E0062F10E0B801E1
:100780000C2E02C0759567950A94E2F76170F70127
:1007900081917F010E94BE022196C430D10579F774
:1007A000C601DF91CF911F910F91FF90EF90DF90E5
:1007B000CF900C949803CF92DF92EF92FF920F9319
:1007C0001F93CF93DF93EC01F62E642F8C810E9450
:1007D000BE028D818F3F19F060E00E94BE020F2D96
:1007E00010E08F8584FF25C06E0187E0C80ED11C04
:1007F000F12CE12CB8010E2C02C0759567950A9476
:10080000E2F76170F60181916F010E94BE02FFEF75
:10081000EF1AFF0A88E0E816F10461F7CE01DF91D4
:10082000CF911F910F91FF90EF90DF90CF900C949C
:100830009803B80184E0759567958A95E1F7CE0134
:100840000E94AE036F2DCE01DF91CF911F910F91CA
:10085000FF90EF90DF90CF900C94AE0340E0682FB4
:100860008CEF92E00C94DB03CF93DF93823029F47A
:1008700090910B03986090930B0380930F03109259
:10088000100380E48093110380E18093120380E5DC
:100890008093130361E0809100030E94F002809135
:1008A00001038F3F19F061E00E94F00261E0809146
:1008B00002030E94F002CCEFD2E09E012C5F324096
:1008C00080910B0384FD0BC084E090E021962817F3
:1008D000390744F461E08E810E94F002EECF88E097
:1008E00090E0F4CF8BE39DE00197F1F760E0809119
:1008F00000030E94BE0260E0809102030E94BE02DB
:10090000809101038F3F19F060E00E94BE02809148
:100910000B0384FD39C063E08CEF92E00E94AE03CC
:10092000CBE4D6E4CE010197F1F763E08CEF92E0DF
:100930000E94AE032197F1F763E08CEF92E00E94F2
:10094000AE0383E592E00197F1F762E08CEF92E06D
:100950000E94AE0380910B0380620E942E0484E00B
:1009600080930C038CE00E942E0481E00E942E04F0
:100970008BE39FE10197F1F782E080930D0386E01E
:10098000DF91CF910C942E0480620E942E048BE4A0
:1009900096E40197F1F780910B0380620E942E0488
:1009A00083E592E00197F1F780910B0380620E944A
:1009B0002E04D0CF90910F03691710F06FEF690FDD
:1009C000E62FF0E0E450FD4F9489890F80680C9485
:1009D0002E0441E00E94DB0381E090E00895FC01D9
:1009E00080819181009711F00C94860908950F93EE
:1009F0001F93CF93DF93EC0188819981009759F081
:100A00002A813B812617370730F081E0DF91CF91B3
:100A10001F910F9108958B016F5F7F4F0E940F0A06
:100A2000009759F0998388831B830A832C813D8129
:100A3000232B59F7FC011082E8CF80E0E7CFEF923B
:100A4000FF920F931F93CF93DF93EC017B018A01F9
:100A5000BA010E94F70428813981811114C021153F
:100A6000310519F0C9010E948609198218821D8278
:100A70001C821B821A82CE01DF91CF911F910F91B0
:100A8000FF90EF9008951D830C83B701C9010E9468
:100A9000020BF1CF1F920F920FB60F9211242F93DA
:100AA0003F938F939F93AF93BF93809189029091CF
:100AB0008A02A0918B02B0918C023091760223E0E1
:100AC000230F2D3758F50196A11DB11D20937602F5
:100AD0008093890290938A02A0938B02B0938C0238
:100AE0008091770290917802A0917902B0917A0278
:100AF0000196A11DB11D8093770290937802A09377
:100B00007902B0937A02BF91AF919F918F913F91FB
:100B10002F910F900FBE0F901F90189526E8230F6E
:100B20000296A11DB11DD2CFCF93DF93CDB7DEB713
:100B30002C970FB6F894DEBF0FBECDBF789484B566
:100B4000826084BD84B5816084BD85B5826085BDC9
:100B500085B5816085BD80916E00816080936E0057
:100B60001092810080918100826080938100809149
:100B700081008160809381008091800081608093FA
:100B800080008091B10084608093B1008091B000BA
:100B900081608093B0008091910082608093910089
:100BA000809191008160809391008091900081609C
:100BB000809390008091A10082608093A100809139
:100BC000A10081608093A1008091A000816080934A
:100BD000A0008091210182608093210180912101F8
:100BE00081608093210180912001816080932001A8
:100BF00080917A00846080937A0080917A0082608C
:100C000080937A0080917A00816080937A0080914D
:100C10007A00806880937A001092C10082E00E947E
:100C20003404412C512C3201439430E0832E30E0C7
:100C3000932E51E05093F9028FB7F89440918902B6
:100C400050918A0260918B0270918C028FBF8091CB
:100C5000E9029091EA02A091EB02B091EC02481BEC
:100C6000590B6A0B7B0B8091F5029091F602B0E074
:100C7000A0E084179507A607B70708F018C110E091
:100C80008091F302181760F4E091EF02F091F00206
:100C9000E10FF11D62E080810E94F0021F5FF0CF42
:100CA000312C8091F402381608F061C0E32CF12C4D
:100CB000E091F102F091F202EE0DFF1D61E0808102
:100CC0000E94F002E091F102F091F202EE0DFF1DA0
:100CD00060E080810E94BE02D301C201032C04C0E7
:100CE000880F991FAA1FBB1F0A94D2F75C016C01E1
:100CF000C094D094212C8091F302281608F5022D7F
:100D000010E0E091EF02F091F002E00FF11F80811E
:100D10000E9492020C5F1F4F000F111FF801E35752
:100D2000FD4F892B41F4808191818A299B299183F0
:100D300080832394E0CF808191818C219D21F7CF06
:100D4000E091F102F091F202EE0DFF1D61E0808171
:100D50000E94BE028091F1029091F202E80EF91E0B
:100D600060E0F70180810E94F00233949ACF0DE891
:100D700012E0F801878D90A1892B31F4148E8FEF4A
:100D80009FEF968F858F11A2369692E0E93CF90786
:100D900089F7D12C8091F302D81608F053C0C12CEA
:100DA000ED2CF12CEE0CFF1CF701EB56FD4F7F01F3
:100DB0002091F402C21608F043C0F70160817181EE
:100DC0000C2C02C0769567950A94E2F7D29E9001AA
:100DD00011242C0D311DEDE8F2E080E0458D568D9B
:100DE0002417350709F411C18F5F36968A30B1F7A1
:100DF00060FF24C0EDE8F2E090E080E0448D411116
:100E000018C0E091ED02F091EE02E20FF31F408175
:100E100056E0589FF001599FF00D1124E357FD4F04
:100E2000448F368F258F10A2178E61E00E948E01AD
:100E300005C0019636968A30910501F7C394B8CF64
:100E4000D394A8CF80E0F80191A19111892F0A5F76
:100E50001F4FF2E0093C1F07B1F79FB7F89440918C
:100E6000890250918A0260918B0270918C029FBF1F
:100E70004093E9025093EA026093EB027093EC0214
:100E80008823A9F08091AE02882389F08091AC027A
:100E90009091AD02019759F4D090A902D1100AC0E7
:100EA0008114910409F4C5CE0E940000BECE1092B8
:100EB000F902F6CF00918702109188025AE2D5120A
:100EC0004FC00730110561F71A8219821C821B82FC
:100ED0001E821D82609181027091820261157105EE
:100EE00041F04091850250918602CE0101960E9408
:100EF0001F0518861F821A8619861C861B8660911C
:100F00007B0270917C026115710541F040917F0276
:100F100050918002CE0107960E941F0561E080E09B
:100F20000E94DA042B853C858D819E812817390724
:100F3000A1F48F81988569817A81009709F467C04F
:100F40006115710539F4232B09F46FC0FC01808110
:100F500090E068C00E94F90A65C080E492E067C032
:100F600007301105DCF58D2D0D2C000C990BC09769
:100F70000A97A0F5D9821A82E0907F02F090800251
:100F8000FFEFEF1AFF0AB7018BE792E00E94F70428
:100F9000882399F020917B0230917C0280917F021E
:100FA00090918002BE016F5F7F4F820F931F0E945E
:100FB000020BF0928002E0927F02C80101969093AA
:100FC00088028093870260E0802F0E94DA0441E06B
:100FD0006D2D8CEF92E00E94DB0362CF61E080E038
:100FE0000E94DA048FE492E00E948B0366E071E0D5
:100FF00080E090E00E94550361E080E00E94DA0406
:101000008DE592E00E948B034BCF61700FCF61158D
:10101000710559F0232B49F0FB01808190E09195F7
:1010200081959109892B09F098CF8FE292E00E9477
:101030008B0366E972E080E090E00E94550381E056
:101040000E942E048BE39FE10197F1F71092880232
:101050001092870250E040E06DE672E08BE792E08C
:101060000E941F05CE0107960E94EF04CE01019653
:101070000E94EF0415CF1092FF021092FE0287E249
:1010800092E09093FD028093FC028DE08093000338
:101090008FEF809301038CE0809302038BE08093B9
:1010A00003038AE08093040389E08093050388E0CA
:1010B000809306031092070310920803109209030D
:1010C00010920A0310920B0381E00E9434041092E4
:1010D0008F021092930210929202109294028DE16C
:1010E00092E090938E0280938D02E9EAF2E0108202
:1010F000148213821582369682E0E53EF807B9F72E
:1011000083E092E09093F0028093EF0280E092E01F
:101110009093F2028093F10284E08093F30283E0E3
:101120008093F40287E092E09093EE028093ED02C8
:101130008AE090E09093F6028093F50284EF91E0CC
:101140009093F8028093F7021092FB021092FA0239
:101150001092E9021092EA021092EB021092EC0255
:101160001092F9021092820210928102109284026F
:1011700010928302109286021092850247E050E09E
:101180006EE672E081E892E00E941F0510927C02F8
:1011900010927B0210927E0210927D0210928002C9
:1011A00010927F0250E040E06DE672E08BE792E043
:1011B0000C941F058BE792E00E94EF0481E892E017
:1011C0000C94EF04EE0FFF1F881F8BBF0790F69162
:1011D000E02D19940F931F93CF93DF9382309105E5
:1011E00010F482E090E0E0911603F091170330E0F4
:1011F00020E0B0E0A0E0309799F42115310509F422
:101200004AC0281B390B24303105D8F58A819B81CF
:101210006115710589F1FB0193838283FE0111C081
:10122000408151810281138148175907E0F0481726
:10123000590799F4109761F012960C931297139630
:101240001C933296CF01DF91CF911F910F9108959A
:101250000093160310931703F4CF2115310551F0B5
:101260004217530738F0A901DB019A01BD01DF01E4
:10127000F801C1CFEF01F9CF9093170380931603C4
:10128000CDCFFE01E20FF31F8193919322503109DC
:1012900039832883D7CF2091140330911503232B52
:1012A00041F42091150230911602309315032093DA
:1012B000140320911302309114022115310541F4D9
:1012C0002DB73EB74091170250911802241B350BE1
:1012D000E0911403F0911503E217F307A0F42E1B1D
:1012E0003F0B2817390778F0AC014E5F5F4F24178A
:1012F000350748F04E0F5F1F5093150340931403BA
:10130000819391939FCFF0E0E0E09CCFCF93DF9368
:101310000097E9F0FC01329713821282A091160324
:10132000B0911703ED0130E020E01097A1F4208187
:101330003181820F931F20911403309115032817D8
:10134000390709F061C0F0931503E0931403DF91AE
:10135000CF910895EA01CE17DF07E8F54A815B8156
:101360009E0141155105B1F7E901FB83EA834991DB
:101370005991C40FD51FEC17FD0761F4808191814D
:101380000296840F951FE901998388838281938156
:101390009B838A83F0E0E0E012968D919C911397F5
:1013A0000097B9F52D913C911197CD010296820FCE
:1013B000931F20911403309115032817390739F62C
:1013C000309751F51092170310921603B09315033E
:1013D000A0931403BCCFD383C28340815181840F77
:1013E000951FC817D90761F44E5F5F4F88819981B7
:1013F000480F591F518340838A819B819383828345
:101400002115310509F0B0CFF0931703E0931603CF
:101410009ECFFD01DC01C0CF13821282D7CF4F9245
:101420005F926F927F928F929F92AF92BF92CF9274
:10143000DF92EF92FF920F931F93CF93DF938C0174
:10144000009799F4CB01DF91CF911F910F91FF90FD
:10145000EF90DF90CF90BF90AF909F908F907F9054
:101460006F905F904F900C94EA08FC01E60FF71F15
:101470009C0122503109E217F30708F4AEC0D901EC
:10148000CD91DC911197C617D70720F1C530D10552
:1014900078F0CE0104978617970750F0C61BD70B3C
:1014A0002297C193D1936D937C93CF010E948609BB
:1014B000C801DF91CF911F910F91FF90EF90DF90C6
:1014C000CF90BF90AF909F908F907F906F905F90E4
:1014D0004F9008955B01AC1ABD0A4C018C0E9D1E05
:1014E000A0911603B0911703512C412CF12CE12C43
:1014F000109731F580911403909115038815990583
:1015000009F05CC04616570608F058C080911302D7
:1015100090911402009741F48DB79EB74091170245
:1015200050911802841B950BE817F90708F055C075
:10153000F0931503E0931403F90171836083B8CF2E
:101540008D919C91119712966C90129713967C90A6
:101550001397A815B90559F56C0142E0C40ED11CCA
:10156000CA14DB0420F1AC014A195B09DA011296B6
:10157000159780F06282738251834083D9016D9305
:101580007C93E114F10471F0D7011396FC93EE9370
:1015900012978ECF22968C0F9D1FF9019183808325
:1015A000F301EFCFF0931703E093160381CF4816B2
:1015B000590608F42C017D01D3019ACFCB010E947A
:1015C000EA087C01009749F0AE01B8010E94F00AD8
:1015D000C8010E94860987016BCF10E000E068CF48
:1015E000FB01DC0102C001900D9241505040D8F740
:1015F0000895FB01DC018D91019080190110D9F350
:10160000990B0895FB01DC0101900D920020E1F798
:10161000089511E0C7E3D1E000E006C0802FFE018D
:101620000E94E2082196011DC833D10780E0080717
:06163000A9F7F894FFCFBA
:101636001A18161213141531323334353637383931
:101646002A3023000018038000000000002C03EC61
:1016560002BB0200000000E904FE01880387034381
:101666006F72726563742050617373776F72640072
:1016760057726F6E672050617373776F726400499B
:101686004E56414C494420494E5055540020202086
:101696002020202020202020202020202000393734
:0616A60033313730310042
:00000001FF
