:100000000C9417010C9438010C9438010C943801AD
:100010000C9438010C9438010C9438010C9438017C
:100020000C9438010C9438010C9438010C9438016C
:100030000C9438010C9438010C9438010C9438015C
:100040000C9438010C9438010C9438010C9438014C
:100050000C9438010C9438010C9438010C943C0237
:100060000C9438010C9438010C9438010C9438012C
:100070000C9438010C9438010C9438010C9438011C
:100080000C9438010C9438010C9438010C9438010C
:100090000C9438010C9438010C9438010C943801FC
:1000A0000C9438010C9438010C9438010C943801EC
:1000B0000C9438010C9438010C9438010C943801DC
:1000C0000C9438010C9438010C9438010C943801CC
:1000D0000C9438010C9438010C9438010C943801BC
:1000E0000C9438010C94B5010C94A0010C94AC0153
:1000F0000C94C3010C94C7010C94D5010C948E018F
:100100000C94DF010C94B9010C94CD010C94A40162
:100110000C94BF010C94A8010C9489010C94AF01BC
:100120000C94D1010C94DB0100000A0B02090C0DA8
:100130000E0807030401000000000000000000009A
:1001400000000000000000000000000000000000AF
:10015000000000001211100000000000000000006C
:10016000000000000000000000000000000000008F
:100170002200250028002B002E003100340002014F
:100180000000050108010B010000210024002700E8
:100190002A002D0030003300010100000401070196
:1001A0000A010505050507050808080802020202FC
:1001B0000A0A080804040404010101010101010103
:1001C0000303030303030303040707070C0C0C0CCE
:1001D0000C0C0C0C020202020606060606060606B7
:1001E0000B0B0B0B0B0B0B0B010210202008081044
:1001F0002040102040800201020108040201010297
:10020000040810204080804020100804020180046F
:1002100002018040201008040201080402010102CA
:10022000040810204080010204081020408011249E
:100230001FBECFEFD1E2DEBFCDBF00E00CBF12E0AA
:10024000A0E0B2E0E8EFF6E000E00BBF02C00790EC
:100250000D92AA31B107D9F722E0AAE1B2E001C0BC
:100260001D92A432B207E1F70E9486020C947A0331
:100270000C94000090E0FC01E851FE4F24918E5553
:100280009E4FFC018491882399F090E0880F991F7C
:10029000FC01E857FE4FA591B491FC01E259FE4FD5
:1002A000859194918FB7F894EC91E22BEC938FBFEA
:1002B0000895282F30E0F901E85DFE4F9491F9018F
:1002C000E851FE4F44912E553E4FF90124912223CF
:1002D00009F435C0992311F191509231F8F4E92FC6
:1002E000F0E08827E958FE4F8F4F0C947203A80165
:1002F000AC018901A001A4018E01AF01B501B901D2
:10030000BF01C301C701CD01D1018E01D501DB01C0
:10031000DF01809180008F7780938000E22FF0E0F2
:10032000EE0FFF1FE259FE4FA591B4918FB7F894DD
:10033000EC91611148C040954E234C938FBF0895B6
:10034000809180008F7DE8CF80918000877FE4CF0F
:1003500084B58F7784BDE2CF84B58F7DFBCF80914C
:10036000B0008F778093B000D9CF8091B0008F7D9F
:10037000F9CF809190008F7780939000CFCF8091BC
:1003800090008F7DF9CF80919000877FF5CF80918D
:10039000A0008F778093A000C1CF8091A0008F7DB7
:1003A000F9CF8091A000877FF5CF809120018F77D2
:1003B00080932001B3CF809120018F7DF9CF809170
:1003C0002001877FF5CF4E2BB8CF3FB7F8948091AF
:1003D0001F0290912002A0912102B091220226B525
:1003E000A89B05C02F3F19F00196A11DB11D3FBF6D
:1003F000BA2FA92F982F8827BC01CD01620F711D3C
:10040000811D911D42E0660F771F881F991F4A9535
:10041000D1F708958F929F92AF92BF92CF92DF92C1
:10042000EF92FF924B015C010E94E5016B017C01A0
:100430000E94E5016C197D098E099F09683E734091
:1004400081059105A8F321E0821A9108A108B1085D
:1004500088EEC80E83E0D81EE11CF11C81149104C3
:10046000A104B10429F7FF90EF90DF90CF90BF90E7
:10047000AF909F908F9008951F920F920FB60F929A
:1004800011242F933F938F939F93AF93BF938091AA
:100490001B0290911C02A0911D02B0911E0230918E
:1004A0001A0223E0230F2D3758F50196A11DB11D27
:1004B00020931A0280931B0290931C02A0931D02AA
:1004C000B0931E0280911F0290912002A091210200
:1004D000B09122020196A11DB11D80931F0290933D
:1004E0002002A0932102B0932202BF91AF919F916D
:1004F0008F913F912F910F900FBE0F901F901895E5
:1005000026E8230F0296A11DB11DD2CF789484B5A1
:10051000826084BD84B5816084BD85B5826085BDFF
:1005200085B5816085BD80916E00816080936E008D
:10053000109281008091810082608093810080917F
:100540008100816080938100809180008160809330
:1005500080008091B10084608093B1008091B000F0
:1005600081608093B00080919100826080939100BF
:1005700080919100816080939100809190008160D2
:10058000809390008091A10082608093A10080916F
:10059000A10081608093A1008091A0008160809380
:1005A000A00080912101826080932101809121012E
:1005B00081608093210180912001816080932001DE
:1005C00080917A00846080937A0080917A008260C2
:1005D00080937A0080917A00816080937A00809184
:1005E0007A00806880937A001092C10081E30E94B3
:1005F0003A0161E081E30E9459018CB58C7F8260F1
:100600008CBD8DB581608DBDCFB7F89480912302EC
:10061000811124C0E7EDF1E08491EDE1F2E09491E5
:10062000E82FF0E0EE0FFF1FE857FE4FA591B491C1
:10063000EC91E92321F461E085E30E94590185E30F
:100640000E943A018CB580618CBD8CB580648CBDF4
:1006500084E30E943A0183E30E943A0180912302DD
:100660008F5F80932302CFBF1AE780E0E82E80E0FF
:10067000F82E60E081E30E94590164E670E080E0BA
:1006800090E00E940A02C0E0D2E089918EBD000095
:100690000DB407FEFDCF8EB569E170E080E090E01B
:1006A0000E940A0282E0C831D80779F71EBD000017
:1006B0000DB407FEFDCF8EB564E670E080E090E0FB
:1006C0000E940A0261E081E30E94590168EC70E037
:1006D00080E090E00E940A02E114F10451F20E94CD
:1006E0000000C7CFEE0FFF1F881F8BBF0790F6914A
:0806F000E02D1994F894FFCFEE
:1006F800416D696E393733313032342F4D6168645A
:0A0708006939373331373031000012
:00000001FF
