:020000040040BA
:1000000000040020C1004000C9004000CB004000B7
:10001000CD004000CF004000D100400000000000B3
:10002000000000000000000000000000D3004000BD
:10003000D500400000000000D7004000D90040007B
:10004000DB004000DB004000DB004000DB00400044
:10005000DB004000DB004000DB004000000000004F
:10006000DB004000DB00400000000000DB0040003F
:10007000DB004000DB004000DB004000DB00400014
:10008000000000000000000000000000DB00400055
:10009000DB004000DB00400000000000DB0040000F
:1000A000DB004000DB004000DB004000DB004000E4
:1000B000DB004000DB004000DB004000DB004000D4
:1000C0000948804709480047FEE7FEE7FEE7FEE7EC
:1000D000FEE7FEE7FEE7FEE7FEE7FEE70448054928
:1000E000054A064B70470000090140008D014000A1
:1000F0000000002000040020000200200002002078
:10010000704770477047000040F26840C4F20E002C
:100110004FF4007244F20031C0F8982540F2011209
:10012000C5F24D01C0F23712C16740F8482C00BF3C
:100130000268D207FCD048F20162C2F20F0240F816
:10014000402C00BF02689207FCD550F8382C0223DF
:1001500063F3061240F8382C02681207FCD52222FD
:1001600040F8382C02681207FCD5002240F8682CB1
:100170004FF4E052013140F8582CC16741F254402D
:10018000C4F20E004FF4004101607047364E3268F1
:1001900002F00103002BF9D000F02DF800F032F846
:1001A00000F03AF800F042F800F04FF800F043F8A1
:1001B00000F04BF800F03AF800F033F800F045F8A2
:1001C00000F039F800F041F800F030F800F024F8C1
:1001D00000F01DF800F039F800F02DF800F035F8C7
:1001E00000F024F800F01DF800F02FF800F023F8DC
:1001F00000F02BF8D2E74FF007041C4D2C601C4D8B
:100200002C6070474FF001041A4D2C6070474FF07E
:100210000104194D2C6070474FF00204154D2C60FD
:1002200070474FF00204144D2C6070474FF00404E7
:10023000104D2C6070474FF004040F4D2C60704738
:100240004FF007040C4D2C60A0E7326802F0020367
:10025000022BF5D04FF000044FF4C02504F1010447
:10026000AC42FBD1704700004C100E40000E0E4017
:0C027000100E0E40300E0E40340E0E40FA
:040000050040018D29
:00000001FF
