:100000000C9444010C9475010C9475010C947501C9
:100010000C9475010C9475010C9475010C94750188
:100020000C9475010C9475010C9475010C94750178
:100030000C9475010C9475010C9475010C94750168
:100040000C9475010C9475010C9475010C94750158
:100050000C9475010C9475010C9475010C94CC06EC
:100060000C9475010C9496060C946C060C94750116
:100070000C9475010C9475010C9475010C94750128
:100080000C9475010C9475010C9475010C94750118
:100090000C9475010C9475010C9475010C94750108
:1000A0000C9475010C9475010C9475010C947501F8
:1000B0000C9475010C9475010C9475010C947501E8
:1000C0000C9475010C9475010C9475010C947501D8
:1000D0000C9475010C9475010C9475010C947501C8
:1000E0000C9475010C94A0020C9477030C943F04BB
:1000F0000C942C0B0C948F030C9468020C947103D9
:100100000C9469040C945C030C9481030C943702E6
:100110000C9466030C9468040C949C030C94ED02FC
:100120000C9446020C94A1030C94BD050C946A0334
:100130000C945A020C94FF030C947B030C94160746
:100140000C9462030C94CE030C9497030C948903D3
:100150000C9485030C940A020C949D030C946E037A
:100160000C94930300002100240027002A002D0096
:100170003000330001010000040107010A01000002
:100180002200250028002B002E003100340002013F
:100190000000050108010B010000200023002600DB
:1001A00029002C002F00320000010000030106018D
:1001B00009010505050507050808080802020202ED
:1001C0000A0A0808040404040101010101010101F3
:1001D0000303030303030303040707070C0C0C0CBE
:1001E0000C0C0C0C020202020606060606060606A7
:1001F0000B0B0B0B0B0B0B0B010210202008081034
:100200002040102040800201020108040201010286
:10021000040810204080804020100804020180045F
:1002200002018040201008040201080402010102BA
:1002300004081020408001020408102040800000C3
:100240000A0B02090C0D0E08070304010000000050
:10025000000000000000000000000000000000009E
:10026000000000000000000000001211100000005B
:10027000000000000000000000000000000000007E
:100280000000000016072C0B11241FBECFEFD1E297
:10029000DEBFCDBF00E00CBF23E0A6E6B2E001C0A8
:1002A0001D92AE3AB207E1F712E0A0E0B2E0E0EE54
:1002B000FBE100E00BBF02C007900D92A636B1072C
:1002C000D9F711E0C3E4D1E000E006C021970109AD
:1002D000802FFE010E94C00BC234D10780E00807C6
:1002E000A9F70E94E7070C94DE0D0C94000096E03D
:1002F000899FD0011124AD5DBC4F90967C936E9385
:100300005F9791E091969C939197E0919003F09183
:10031000910390918F03992339F0309751F0811117
:1003200008C080913F031994309719F05C968C9126
:10033000FACF0895CF92DF92EF92FF920F931F931F
:1003400096E0899FF0011124ED5DFC4F11A2278DED
:1003500030A12130310551F178F02230310509F416
:1003600051C02330310509F452C01F910F91FF9005
:10037000EF90DF90CF9008956623B9F361E070E0CD
:100380000E9477012FB7F8948091700290917102CA
:10039000A0917202B09173022FBF80937B03909360
:1003A0007C03A0937D03B0937E03DFCF9FB7F894C7
:1003B000C0907002D0907102E0907202F0907302CF
:1003C0009FBF00917B0310917C0320917D033091AE
:1003D0007E03C01AD10AE20AF30A00918D0310913C
:1003E0008E0330E020E00C151D052E053F0550F46E
:1003F00062E070E01F910F91FF90EF90DF90CF903F
:100400000C9477016111B1CF63E070E0F3CF70E03D
:1004100060E0F0CFAF92BF92CF92DF92EF92FF9267
:100420000F931F93CF93DF936C017B018B01040F1C
:10043000151FEB015E01AE18BF08C017D10759F0B8
:100440006991D601ED91FC910190F081E02DC601FA
:100450001995892B79F7C501DF91CF911F910F91E4
:10046000FF90EF90DF90CF90BF90AF900895FC0188
:10047000538D448D252F30E0842F90E0821B930B09
:10048000541710F0CF96089501970895FC01918DAF
:10049000828D981761F0A28DAE0FBF2FB11D5D96B2
:1004A0008C91928D9F5F9F73928F90E008958FEF54
:1004B0009FEF0895FC01918D828D981731F0828D08
:1004C000E80FF11D858D90E008958FEF9FEF08955F
:1004D000FC01918D228D892F90E0805C9F4F821BC3
:1004E00091098F739927089584E792E00E9468022A
:1004F00021E0892B09F420E0822F0895FC01A48DCE
:10050000A80FB92FB11DA35ABF4F2C91848D90E035
:1005100001968F739927848FA689B7892C93A08918
:10052000B1898C91837080648C93938D848D9813A2
:1005300006C00288F389E02D80818F7D8083089535
:10054000EF92FF920F931F93CF93DF93EC0181E023
:10055000888F9B8D8C8D98131AC0E889F9898081CA
:1005600085FF15C09FB7F894EE89FF896083E889FD
:10057000F98980818370806480839FBF81E090E0EF
:10058000DF91CF911F910F91FF90EF900895F62E7C
:100590000B8D10E00F5F1F4F0F731127E02E8C8D16
:1005A0008E110CC00FB607FCFACFE889F98980815B
:1005B00085FFF5CFCE010E947E02F1CFEB8DEC0FCF
:1005C000FD2FF11DE35AFF4FF0829FB7F8940B8F78
:1005D000EA89FB8980818062CFCFCF93DF93EC01E2
:1005E000888D8823B9F0AA89BB89E889F9898C911B
:1005F00085FD03C0808186FD0DC00FB607FCF7CFD7
:100600008C9185FFF2CF808185FFEDCFCE010E94D6
:100610007E02E9CFDF91CF91089580E090E0892BB1
:1006200029F00E94740281110E94000080E090E095
:10063000892B49F080E090E0892B29F00E9400008E
:1006400081110E94000080E090E0892B49F080E059
:1006500090E0892B29F00E94000081110E94000087
:1006600080E090E0892B49F080E090E0892B29F030
:100670000E94000081110C94000008958150823185
:1006800008F05AC0E82FF0E08827E65BFC4F8F4F58
:100690000C94C00B6A036E035C03620366039C0345
:1006A000710377037B038103850389038F0393031E
:1006B0009C0397039D03A103809180008F77809313
:1006C00080000895809180008F7DF9CF8091800017
:1006D000877FF5CF84B58F7784BD089584B58F7DEE
:1006E000FBCF8091B0008F778093B0000895809108
:1006F000B0008F7DF9CF809190008F77809390002C
:100700000895809190008F7DF9CF80919000877F30
:10071000F5CF8091A0008F778093A00008958091FD
:10072000A0008F7DF9CF8091A000877FF5CF8091C9
:1007300020018F77809320010895809120018F7D83
:10074000F9CF80912001877FF5CFCF93DF93282FBA
:1007500030E0F901E25CFD4F8491F901E850FE4F71
:10076000D491F901EE54FE4FC491CC23A1F0811134
:100770000E943E03EC2FF0E0EE0FFF1FE856FE4F05
:10078000A591B491EC91ED2381E090E009F480E033
:10079000DF91CF91089580E090E0FACF862F0C94FE
:1007A000A5031F93CF93DF93282F30E0F901E25C7C
:1007B000FD4F8491F901E850FE4FD491F901EE54B8
:1007C000FE4FC491CC23A9F0162F81110E943E0345
:1007D000EC2FF0E0EE0FFF1FE258FE4FA591B49111
:1007E0008FB7F894EC91111108C0D095DE23DC93FB
:1007F0008FBFDF91CF911F910895DE2BF8CF862F09
:10080000642F0C94D103CF93DF9390E0FC01E85068
:10081000FE4F24918E549E4FFC0184918823C9F091
:1008200090E0880F991FFC01EC59FE4FA591B491FF
:10083000FC01E258FE4FC591D49161110DC09FB7E4
:10084000F8948C91209582238C9388812823288387
:100850009FBFDF91CF910895623051F49FB7F89414
:100860003C91822F809583238C93E8812E2BEFCFB0
:100870008FB7F894EC912E2B2C938FBFEACF862F55
:10088000642F0C9403043FB7F89480916702909111
:100890006802A0916902B0916A0226B5A89B05C0C2
:1008A0002F3F19F00196A11DB11D3FBFBA2FA92FEF
:1008B000982F8827BC01CD01620F711D811D911DEC
:1008C00042E0660F771F881F991F4A95D1F7089558
:1008D000089590E080E00895CF93DF93EC0160E00D
:1008E0008E810E94D10361E08E810E94D10360E07D
:1008F0008E810E94D1038BE891E00197F1F7DF919F
:10090000CF910895CF92DF92EF92FF920F931F93B2
:10091000CF93DF936C017C0187E0E80EF11CD0E0FF
:10092000C0E0062F10E0B8010C2E02C07595679547
:100930000A94E2F76170F70181917F010E94D1036F
:100940002196C430D10579F7C601DF91CF911F916F
:100950000F91FF90EF90DF90CF900C946C04CF92AA
:10096000DF92EF92FF920F931F93CF93DF93EC01EF
:10097000F62E642F8C810E94D1038D818F3F19F058
:1009800060E00E94D1030F2D10E08F8584FF25C009
:100990006E0187E0C80ED11CF12CE12CB8010E2CA1
:1009A00002C0759567950A94E2F76170F60181912E
:1009B0006F010E94D103FFEFEF1AFF0A88E0E816EB
:1009C000F10461F7CE01DF91CF911F910F91FF905C
:1009D000EF90DF90CF900C946C04B80184E0759593
:1009E00067958A95E1F7CE010E9482046F2DCE01B2
:1009F000DF91CF911F910F91FF90EF90DF90CF90FB
:100A00000C94820440E0682F82E993E00C94AF04D8
:100A1000CF93DF93823029F49091A1039860909353
:100A2000A1038093A5031092A60380E48093A703FB
:100A300080E18093A80380E58093A90361E0809121
:100A400096030E940304809197038F3F19F061E0A1
:100A50000E94030461E0809198030E940304C2E9AC
:100A6000D3E09E01225933408091A10384FD0BC045
:100A700084E090E021962817390744F461E08E81E4
:100A80000E940304EECF88E090E0F4CF8BE39DE07A
:100A90000197F1F760E0809196030E94D10360E036
:100AA000809198030E94D103809197038F3F19F0A2
:100AB00060E00E94D1038091A10384FD39C063E00E
:100AC00082E993E00E948204CBE4D6E4CE01019750
:100AD000F1F763E082E993E00E9482042197F1F745
:100AE00063E082E993E00E94820483E592E001974B
:100AF000F1F762E082E993E00E9482048091A10311
:100B000080620E94020584E08093A2038CE00E9430
:100B1000020581E00E9402058BE39FE10197F1F756
:100B200082E08093A30386E0DF91CF910C940205CD
:100B300080620E9402058BE496E40197F1F78091B0
:100B4000A10380620E94020583E592E00197F1F71C
:100B50008091A10380620E940205D0CF9091A503ED
:100B6000691710F06FEF690FE62FF0E0EE56FC4FBB
:100B70009489890F80680C94020541E00E94AF04BB
:100B800081E090E008958F929F92AF92BF920F9371
:100B90001F93CF93DF93CDB7DEB7A1970FB6F8942D
:100BA000DEBF0FBECDBF19A2423008F44AE08E016D
:100BB0000F5D1F4F842E912CB12CA12CA501940107
:100BC0000E949E0BE62FB901CA01EA3044F5E05DB0
:100BD000D801EE938D01232B242B252B79F790E060
:100BE00080E0109769F0FD0101900020E9F731974E
:100BF000AF014A1B5B0BBD0182E993E00E940A0230
:100C0000A1960FB6F894DEBF0FBECDBFDF91CF9196
:100C10001F910F91BF90AF909F908F900895E95CC6
:100C2000D7CFFC0180819181009711F00C94640C66
:100C300008950F931F93CF93DF93EC0188819981DF
:100C4000009759F02A813B812617370730F081E061
:100C5000DF91CF911F910F9108958B016F5F7F4FAF
:100C60000E94ED0C009759F0998388831B830A83B7
:100C70002C813D81232B59F7FC011082E8CF80E0C5
:100C8000E7CFEF92FF920F931F93CF93DF93EC0187
:100C90007B018A01BA010E941906288139818111DC
:100CA00014C02115310519F0C9010E94640C198284
:100CB00018821D821C821B821A82CE01DF91CF9185
:100CC0001F910F91FF90EF9008951D830C83B70142
:100CD000C9010E94D70DF1CF1F920F920FB60F924C
:100CE00011240BB60F922F933F934F935F936F9303
:100CF0007F938F939F93AF93BF93EF93FF9384E77B
:100D000092E00E947E02FF91EF91BF91AF919F917F
:100D10008F917F916F915F914F913F912F910F90A4
:100D20000BBE0F900FBE0F901F9018951F920F9241
:100D30000FB60F9211240BB60F922F938F939F93A0
:100D4000EF93FF93E0918402F09185028081E0911E
:100D50008A02F0918B0282FD1DC0908180918D02EC
:100D60008F5F8F7320918E02821741F0E0918D0288
:100D7000F0E0EC58FD4F958F80938D02FF91EF913D
:100D80009F918F912F910F900BBE0F900FBE0F90E0
:100D90001F9018958081F2CF1F920F920FB60F927D
:100DA00011242F933F938F939F93AF93BF93809181
:100DB000700290917102A0917202B0917302309111
:100DC000660223E0230F2D3758F50196A11DB11DB2
:100DD000209366028093700290937102A093720236
:100DE000B09373028091670290916802A0916902AA
:100DF000B0916A020196A11DB11D80936702909384
:100E00006802A0936902B0936A02BF91AF919F916B
:100E10008F913F912F910F900FBE0F901F901895BB
:100E200026E8230F0296A11DB11DD2CFCF93DF93E9
:100E3000109277021092760288EE93E0A0E0B0E084
:100E40008093780290937902A0937A02B0937B0208
:100E500082E292E0909375028093740285EC90E0B8
:100E6000909381028093800284EC90E090938302BF
:100E70008093820280EC90E09093850280938402BC
:100E800081EC90E0909387028093860282EC90E060
:100E9000909389028093880286EC90E090938B0275
:100EA00080938A0210928D0210928E0210928F020D
:100EB0001092900210929503109294038EE392E0A8
:100EC00090939303809392038DE0809396038FEF2A
:100ED000809397038CE0809398038BE08093990331
:100EE0008AE080939A0389E080939B0388E0809353
:100EF0009C0310929D0310929E0310929F031092E8
:100F0000A0031092A10381E00E940805109225031E
:100F1000109229031092280310922A0384E392E08E
:100F20009093240380932303EFE3F3E01082148271
:100F300013821582369683E0EB37F807B9F784E021
:100F400092E0909386038093850380E092E09093F3
:100F500088038093870384E08093890380938A03C6
:100F600088E092E090938403809383038AE090E08A
:100F700090938C0380938B0384EF91E090938E0386
:100F800080938D03109291031092900310927F032F
:100F900010928003109281031092820310928F03AB
:100FA000C1E1D3E0198218821B821A821D821C8241
:100FB00050E040E064E672E0CE010E9441062696D1
:100FC00083E0C332D80771F7DF91CF910895CF93B3
:100FD000DF93CDB7DEB72C970FB6F894DEBF0FBE08
:100FE000CDBF789484B5826084BD84B5816084BDB2
:100FF00085B5826085BD85B5816085BD80916E00B7
:10100000816080936E0010928100809181008260E7
:101010008093810080918100816080938100809124
:1010200080008160809380008091B1008460809313
:10103000B1008091B00081608093B00080919100F8
:1010400082608093910080919100816080939100F3
:10105000809190008160809390008091A1008260D7
:101060008093A1008091A10081608093A100809174
:10107000A00081608093A000809121018260809314
:1010800021018091210181608093210180912001C3
:1010900081608093200180917A00846080937A003F
:1010A00080917A00826080937A0080917A008160DA
:1010B00080937A0080917A00806880937A00109201
:1010C000C10082E00E940805E0918402F09185024F
:1010D00082E08083E0918002F09181021082E091B1
:1010E0008202F09183028FEC808310928C02E09157
:1010F0008802F091890286E08083E0918602F09177
:101100008702808180618083E0918602F09187026E
:10111000808188608083E0918602F09187028081DF
:1011200080688083E0918602F091870280818F7DC4
:1011300080832224239420928F038FB7F8944091C8
:1011400070025091710260917202709173028FBFB0
:1011500080917F0390918003A0918103B0918203DD
:10116000481B590B6A0B7B0B80918B0390918C036E
:10117000B0E0A0E084179507A607B70708F01BC1E9
:1011800010E080918903181760F4E0918503F091D5
:101190008603E10FF11D62E080810E9403041F5F5E
:1011A000F0CF812C80918A03881608F063C0E82C68
:1011B000F12CE0918703F0918803EE0DFF1D61E0B3
:1011C00080810E940304E0918703F0918803EE0D73
:1011D000FF1D60E080810E94D10381E090E0A0E0EB
:1011E000B0E0082C04C0880F991FAA1FBB1F0A94E7
:1011F000D2F75C016C01C094D094312C80918903AA
:10120000381608F5032D10E0E0918503F091860370
:10121000E00FF11F80810E94A5030C5F1F4F000F9C
:10122000111FF801ED5DFC4F892B41F48081918104
:101230008A299B29918380833394E0CF8081918197
:101240008C219D21F7CFE0918703F0918803EE0D6B
:10125000FF1D61E080810E94D103809187039091FE
:101260008803E80EF91E60E0F70180810E94030404
:10127000839498CF23E2E22E23E0F22E8701F80137
:10128000878D90A1892B31F4148E8FEF9FEF968F6D
:10129000858F11A20A5F1F4FEFE5F3E0E017F1071A
:1012A00071F7D12C80918903D81608F053C0C12C56
:1012B000AD2CB12CAA0CBB1CC501855D9C4F5C01FB
:1012C00020918A03C21608F043C0F5016081718144
:1012D0000C2C02C0769567950A94E2F7D29E900195
:1012E00011242C0D311DE3E2F3E080E0458D568D95
:1012F0002417350709F4AEC18F5F36968A30B1F7EF
:1013000060FF24C0E3E2F3E090E080E0448D41110F
:1013100018C0E0918303F0918403E20FF31F408132
:1013200056E0589FF001599FF00D1124ED5DFC4FE0
:10133000448F368F258F10A2178E61E00E949A018C
:1013400005C0019636968A30910501F7C394B8CF4F
:10135000D394A8CF80E0F70191A19111892FF6E0F5
:10136000EF0EF11CE016F106B1F79FB7F89440912B
:1013700070025091710260917202709173029FBF6E
:1013800040937F03509380036093810370938203A3
:10139000882389F080914403882369F08091420377
:1013A00090914303019739F4D0903F03D11006C0C8
:1013B0000E940D03C0CE10928F03FACF23E6D21203
:1013C00022C081E00E9402058BE39FE10197F1F7C3
:1013D00050E040E064E672E081E193E00E94410663
:1013E00050E040E064E672E087E193E00E9441064D
:1013F00010926F0210926E0210926D0210926C02A7
:1014000010926B02D5CF8D2D0D2C000C990BC0972F
:101410000A97F0F580916E0290916F02D9821A823C
:1014200056E0589F8001599F100D11240F5E1C4FEC
:10143000F801E480F580FFEFEF1AFF0AB701C80159
:101440000E941906882379F0F80120813181848176
:101450009581BE016F5F7F4F820F931F0E94D70D52
:10146000F801F582E48280916C0290916D029C01FA
:101470002F5F3F4F30936D0220936C0260E00E941B
:10148000AE0541E06D2D82E993E00E94AF0490CF5C
:1014900010916B02FDE3DF1292C0112309F491C099
:1014A00018861F821A8619861C861B866091170370
:1014B000709118036115710541F040911B03509123
:1014C0001C03CE0107960E9441061A8219821C82D3
:1014D0001B821E821D82609111037091120361159F
:1014E000710541F04091150350911603CE0101960C
:1014F0000E94410689819A81C12CD12C76010097E6
:1015000021F00E94380B6B017C018F819885812C22
:10151000912C5401009721F00E94380B4B015C0183
:101520001B32B9F154F51A3209F441C0CE010196CB
:101530000E941106CE0107960E94110661E080E02C
:101540000E94AE056201052C000CEE08FF084AE07F
:10155000C701B601F7FE0EC041E06DE282E993E0FB
:101560000E94AF0466277727CB016C197D098E098D
:101570009F094AE00E94C3051BCF1D3289F01F322C
:10158000A9F6C701B601A50194010E949E0B29018D
:10159000CDCF26013701480C591C6A1C7B1CC6CFD5
:1015A00026013701481859086A087B08BFCFA701F0
:1015B0009601C501B4010E948E0B2B01B7CF11110A
:1015C0000CC0D0926B0280916E0290916F020196D6
:1015D00090936F0280936E0246CF61E080E00E949C
:1015E000AE054DE050E066E472E082E993E00E94CF
:1015F0000A020E9443044B015C0184E6C82ED12CF0
:10160000E12CF12C0E944304681979098A099B098D
:10161000683E734081059105A8F321E0C21AD10804
:10162000E108F10858EE850E53E0951EA11CB11C8F
:10163000C114D104E104F10429F761E080E00E94C3
:10164000AE0540E150E064E572E082E993E00E947B
:101650000A02AECE617072CE8DE193E00E94110657
:1016600087E193E00E94110681E193E00C9411065A
:101670001F93FC0199278827BC01E894119110322F
:10168000E9F3193010F01E30C8F31B3251F01D324F
:1016900049F4689406C00E945F0B610F711D811DA3
:1016A000911D119110531A30B0F33EF4909580952E
:1016B000709561957F4F8F4F9F4F1F910895592FC0
:1016C000482F372F262F660F771F881F991F660F09
:1016D000771F881F991F620F731F841F951F660F46
:1016E000771F881F991F08950E947F0BA59F900D5B
:1016F000B49F900DA49F800D911D11240895A29F69
:10170000B001B39FC001A39F700D811D1124911DD5
:10171000B29F700D811D1124911D0895DB018F93DF
:101720009F930E94740BBF91AF91A29F800D911D5A
:10173000A39F900DB29F900D11240895A1E21A2E3F
:10174000AA1BBB1BFD010DC0AA1FBB1FEE1FFF1F65
:10175000A217B307E407F50720F0A21BB30BE40BB5
:10176000F50B661F771F881F991F1A9469F76095FC
:101770007095809590959B01AC01BD01CF010895B6
:10178000EE0FFF1F881F8BBF0790F691E02D199475
:101790000F931F93CF93DF938230910510F482E073
:1017A00090E0E091AC03F091AD0330E020E0B0E0D8
:1017B000A0E0309799F42115310509F44AC0281B9F
:1017C000390B24303105D8F58A819B81611571056B
:1017D00089F1FB0193838283FE0111C04081518115
:1017E0000281138148175907E0F04817590799F407
:1017F000109761F012960C93129713961C933296E1
:10180000CF01DF91CF911F910F9108950093AC0309
:101810001093AD03F4CF2115310551F04217530752
:1018200038F0A901DB019A01BD01DF01F801C1CF48
:10183000EF01F9CF9093AD038093AC03CDCFFE01C0
:10184000E20FF31F8193919322503109398328834A
:10185000D7CF2091AA033091AB03232B41F42091E1
:101860001A0230911B023093AB032093AA032091FC
:101870001802309119022115310541F42DB73EB7F8
:1018800040911C0250911D02241B350BE091AA03CC
:10189000F091AB03E217F307A0F42E1B3F0B2817C0
:1018A000390778F0AC014E5F5F4F2417350748F0D9
:1018B0004E0F5F1F5093AB034093AA038193919304
:1018C0009FCFF0E0E0E09CCFCF93DF930097E9F06B
:1018D000FC01329713821282A091AC03B091AD0348
:1018E000ED0130E020E01097A1F420813181820FDA
:1018F000931F2091AA033091AB032817390709F0F1
:1019000061C0F093AB03E093AA03DF91CF910895F8
:10191000EA01CE17DF07E8F54A815B819E01411598
:101920005105B1F7E901FB83EA8349915991C40F4D
:10193000D51FEC17FD0761F4808191810296840F19
:10194000951FE90199838883828193819B838A8390
:10195000F0E0E0E012968D919C9113970097B9F515
:101960002D913C911197CD010296820F931F2091EA
:10197000AA033091AB032817390739F6309751F590
:101980001092AD031092AC03B093AB03A093AA03E3
:10199000BCCFD383C28340815181840F951FC81768
:1019A000D90761F44E5F5F4F88819981480F591FB5
:1019B000518340838A819B819383828321153105E2
:1019C00009F0B0CFF093AD03E093AC039ECFFD01DF
:1019D000DC01C0CF13821282D7CF4F925F926F92F9
:1019E0007F928F929F92AF92BF92CF92DF92EF92AF
:1019F000FF920F931F93CF93DF938C01009799F47D
:101A0000CB01DF91CF911F910F91FF90EF90DF906D
:101A1000CF90BF90AF909F908F907F906F905F908E
:101A20004F900C94C80BFC01E60FF71F9C0122504D
:101A30003109E217F30708F4AEC0D901CD91DC916A
:101A40001197C617D70720F1C530D10578F0CE0120
:101A500004978617970750F0C61BD70B2297C193A0
:101A6000D1936D937C93CF010E94640CC801DF91E8
:101A7000CF911F910F91FF90EF90DF90CF90BF908B
:101A8000AF909F908F907F906F905F904F90089550
:101A90005B01AC1ABD0A4C018C0E9D1EA091AC03DB
:101AA000B091AD03512C412CF12CE12C109731F564
:101AB0008091AA039091AB038815990509F05CC049
:101AC0004616570608F058C08091180290911902E6
:101AD000009741F48DB79EB740911C0250911D02B2
:101AE000841B950BE817F90708F055C0F093AB037A
:101AF000E093AA03F90171836083B8CF8D919C9123
:101B0000119712966C90129713967C901397A815C4
:101B1000B90559F56C0142E0C40ED11CCA14DB04AE
:101B200020F1AC014A195B09DA011296159780F091
:101B30006282738251834083D9016D937C93E11457
:101B4000F10471F0D7011396FC93EE9312978ECFA8
:101B500022968C0F9D1FF90191838083F301EFCFB3
:101B6000F093AD03E093AC0381CF4816590608F417
:101B70002C017D01D3019ACFCB010E94C80B7C01BF
:101B8000009749F0AE01B8010E94CE0DC8010E9435
:101B9000640C87016BCF10E000E068CFFB01DC0133
:101BA00002C001900D9241505040D8F70895FB01BA
:101BB000DC0101900D920020E1F7089511E0C3E4EB
:101BC000D1E000E006C0802FFE010E94C00B2196EC
:101BD000011DC434D10780E00807A9F7F894FFCFAE
:101BE0001213141516181A1C3738392F3435362AA3
:101BF0003132332D63303D2B0000AE0380000000F6
:101C00000000A0020A023702ED02680246025A02F0
:101C1000000000003F04FF03CE0300000000BD05EC
:101C20000A0269046804494E56414C494420494E11
:101C3000505554002020202020202020202020202B
:061C40002020202000001E
:00000001FF
