:100000000C9417010C9438010C9438010C943801AD
:100010000C9438010C9438010C9438010C9438017C
:100020000C9438010C9438010C9438010C9438016C
:100030000C9438010C9438010C9438010C9438015C
:100040000C9438010C9438010C9438010C9438014C
:100050000C9438010C9438010C9438010C949B02D8
:100060000C9438010C9438010C9438010C9438012C
:100070000C9438010C9438010C9438010C9438011C
:100080000C9438010C9438010C9438010C9438010C
:100090000C9438010C9438010C9438010C943801FC
:1000A0000C9438010C9438010C9438010C943801EC
:1000B0000C9438010C9438010C9438010C943801DC
:1000C0000C9438010C9438010C9438010C943801CC
:1000D0000C9438010C9438010C9438010C943801BC
:1000E0000C9438010C94A8010C94C0010C94890163
:1000F0000C94BC010C94AE010C94B6010C946A01F2
:100100000C9490010C946F010C94A0010C9481014B
:100110000C9496010C9485010C94B2010C948D0101
:100120000C94A4010C949A010000220025002800E0
:100130002B002E00310034000201000005010801EF
:100140000B0100000A0B02090C0D0E080703040145
:10015000000000000000000000000000000000009F
:10016000000000000000000000000000000012116C
:10017000100000000000000000000000000000006F
:100180000000000000000000000021002400270003
:100190002A002D0030003300010100000401070196
:1001A0000A01010210202008081020401020408081
:1001B000020102010804020101020408102040802B
:1001C00080402010080402018004020180402010B9
:1001D0000804020108040201010204081020408002
:1001E00001020408102040800505050507050808E0
:1001F0000808020202020A0A0808040404040101B1
:1002000001010101010103030303030303030407C5
:1002100007070C0C0C0C0C0C0C0C0202020206065C
:100220000606060606060B0B0B0B0B0B0B0B11241D
:100230001FBECFEFD1E2DEBFCDBF00E00CBF12E0AA
:10024000A0E0B2E0ECEBF8E000E00BBF02C00790EA
:100250000D92A230B107D9F722E0A2E0B2E001C0CE
:100260001D92AC30B207E1F70E94E5020C945C04E9
:100270000C940000282F30E0F901EE5BFE4F9491C2
:10028000F901EE55FE4F449128513E4FF90124915A
:10029000222309F435C0992311F191509231F8F4D9
:1002A000E92FF0E08827E85AFE4F8F4F0C944D0459
:1002B00089018D016A01810185016F01900196011B
:1002C0009A01A001A401A801AE01B2016F01B6011B
:1002D000BC01C001809180008F7780938000E22F65
:1002E000F0E0EE0FFF1FE85DFE4FA591B4918FB7D0
:1002F000F894EC91611148C040954E234C938FBF08
:100300000895809180008F7DE8CF80918000877F65
:10031000E4CF84B58F7784BDE2CF84B58F7DFBCFEA
:100320008091B0008F778093B000D9CF8091B000DA
:100330008F7DF9CF809190008F7780939000CFCF01
:10034000809190008F7DF9CF80919000877FF5CFCD
:100350008091A0008F778093A000C1CF8091A000F2
:100360008F7DF9CF8091A000877FF5CF809120010C
:100370008F7780932001B3CF809120018F7DF9CFBB
:1003800080912001877FF5CF4E2BB8CFCF93DF939D
:1003900090E0FC01EE55FE4F249188519E4FFC01E8
:1003A00084918823D1F090E0880F991FFC01E857D1
:1003B000FE4FA591B491FC01E85DFE4FC591D4912B
:1003C00061110EC09FB7F8948C91E22FE0958E23B7
:1003D0008C932881E223E8839FBFDF91CF9108951A
:1003E0008FB7F894EC91E22BEC938FBFF6CF9091FE
:1003F0007B00986090937B00865387708064809325
:100400007C0080917A00806480937A0080917A00E9
:1004100086FDFCCF809178009091790008953FB7D8
:10042000F8948091070290910802A0910902B0917E
:100430000A0226B5A89B05C02F3F19F00196A11D01
:10044000B11D3FBFBA2FA92F982F8827BC01CD011E
:10045000620F711D811D911D42E0660F771F881F7D
:10046000991F4A95D1F708958F929F92AF92BF92AC
:10047000CF92DF92EF92FF924B015C010E940F023C
:100480006B017C010E940F026C197D098E099F0986
:10049000683E734081059105A8F321E0821A910816
:1004A000A108B10888EEC80E83E0D81EE11CF11C3B
:1004B00081149104A104B10429F7FF90EF90DF901B
:1004C000CF90BF90AF909F908F9008951F93CF9340
:1004D000DF93182FEB0160E08BE2C130D10529F0EA
:1004E000C230D10521F460E08AE20E943A0164E65C
:1004F00070E080E090E00E9434021EBD00000DB468
:1005000007FEFDCF8EB564E670E080E090E00E94CB
:10051000340261E08BE2C130D10521F0229739F439
:1005200061E08AE2DF91CF911F910C943A01DF9153
:10053000CF911F9108951F920F920FB60F92112421
:100540002F933F938F939F93AF93BF938091030219
:1005500090910402A0910502B0910602309102022E
:1005600023E0230F2D3758F50196A11DB11D2093CF
:1005700002028093030290930402A0930502B093B9
:1005800006028091070290910802A0910902B091A1
:100590000A020196A11DB11D8093070290930802E3
:1005A000A0930902B0930A02BF91AF919F918F91DE
:1005B0003F912F910F900FBE0F901F90189526E836
:1005C000230F0296A11DB11DD2CF789484B582600D
:1005D00084BD84B5816084BD85B5826085BD85B5E7
:1005E000816085BD80916E00816080936E00109265
:1005F00081008091810082608093810080918100E0
:100600008160809381008091800081608093800070
:100610008091B10084608093B1008091B0008160CE
:100620008093B000809191008260809391008091CE
:10063000910081608093910080919000816080930F
:1006400090008091A10082608093A1008091A10020
:1006500081608093A1008091A00081608093A000C0
:10066000809121018260809321018091210181602C
:1006700080932101809120018160809320018091ED
:100680007A00846080937A0080917A0082608093FF
:100690007A0080917A00816080937A0080917A005C
:1006A000806880937A001092C10061E08BE20E9422
:1006B000C60161E08BE20E943A0161E08AE20E9499
:1006C000C60161E08AE20E943A0160E08FE30E9485
:1006D000C60160E08EE30E94C601CFB7F894809116
:1006E0000B02811127C0EDE1F2E08491E7EDF1E02A
:1006F0009491E82FF0E0EE0FFF1FE857FE4FA59111
:10070000B491EC91E92321F461E085E30E943A0180
:1007100061E085E30E94C6018CB580618CBD8CB51B
:1007200080648CBD61E084E30E94C60161E083E3E4
:100730000E94C60180910B028F5F80930B02CFBF96
:10074000CC24CA9483E0D82EE12CF12C92E3892E9C
:1007500099249394A12CB12CC0E0D0E001E010E0EA
:1007600080910002909101028130910541F560E98C
:1007700071E080E090E00E9434028EE30E94F70175
:1007800026E930E0DC010E945504A50194010E9495
:10079000FD03822F61E070E00E94660282E090E03B
:1007A000909301028093000268EC70E080E090E09A
:1007B0000E9434022097A1F20E940000D1CF02973C
:1007C000C9F768EC70E080E090E00E9434028FE3AB
:1007D0000E94F70124E630E0DC010E945504A701E5
:1007E00096010E94FD03822F62E070E00E94660283
:1007F0001093010200930002D7CF052E97FB1EF441
:1008000000940E94140457FD07D00E941C0407FCAA
:1008100003D04EF40C9414045095409530952195D6
:100820003F4F4F4F5F4F089590958095709561951C
:100830007F4F8F4F9F4F0895A1E21A2EAA1BBB1B1B
:10084000FD010DC0AA1FBB1FEE1FFF1FA217B3079C
:10085000E407F50720F0A21BB30BE40BF50B661FB2
:10086000771F881F991F1A9469F760957095809576
:1008700090959B01AC01BD01CF010895A29FB001ED
:10088000B39FC001A39F700D811D1124911DB29FC4
:10089000700D811D1124911D0895EE0FFF1F881FFB
:1008A0008BBF0790F691E02D19940E943E04B7FF8C
:0C08B0000895821B930B0895F894FFCF6D
:0208BC00010039
:00000001FF
