:100000000C942E010C945F010C945F010C945F0121
:100010000C945F010C945F010C945F010C945F01E0
:100020000C945F010C945F010C945F010C945F01D0
:100030000C945F010C94A1060C945F010C945F0179
:100040000C945F010C945F010C945F010C945F01B0
:100050000C945F010C945F010C945F010C944007B9
:100060000C945F010C945F010C945F010C945F0190
:100070000C945F010C945F010C945F010C945F0180
:100080000C945F010C945F010C945F010C945F0170
:100090000C945F010C945F010C945F010C945F0160
:1000A0000C945F010C945F010C945F010C945F0150
:1000B0000C945F010C945F010C945F010C945F0140
:1000C0000C945F010C945F010C945F010C945F0130
:1000D0000C945F010C945F010C945F010C945F0120
:1000E0000C945F010C9463020C943A020C943D0250
:1000F0000C9455020C9443020C944D020C9445064A
:100100000C949A020C94C40B0C9436020C945B026F
:100110000C9432020C9468020C945F020C94CB0293
:100120000C9447020C9451020C942E020C946D0214
:100130000C9428020C94690200002100240027007E
:100140002A002D00300033000101000004010701E6
:100150000A01000020002300260029002C002F00A7
:1001600032000001000003010601090100000A0B32
:1001700002090C0D0E080703040100000000000036
:10018000000000000000000000000000000000006F
:10019000000000000000000012111000000000002C
:1001A000000000000000000000000000000000004F
:1001B000000001021020200808102040102040807C
:1001C000020102010804020101020408102040801B
:1001D00080402010080402018004020180402010A9
:1001E00008040201080402010102040810204080F2
:1001F0000102040810204080000022002500280091
:100200002B002E003100340002010000050108011E
:100210000B0105050505070508080808020202028A
:100220000A0A080804040404010101010101010192
:100230000303030303030303040707070C0C0C0C5D
:100240000C0C0C0C02020202060606060606060646
:100250000B0B0B0B0B0B0B0B0200C40B11241FBE63
:10026000CFEFD1E2DEBFCDBF00E00CBF17E0A0E0D2
:10027000B2E0E0E3FCE100E00BBF02C007900D92AA
:10028000A238B107D9F728E0A2E8B7E001C01D9273
:10029000AB31B207E1F711E0CEE2D1E000E006C0F9
:1002A00021970109802FFE010E94F40DCD32D10764
:1002B00080E00807A9F70E948A070C94160E0C9498
:1002C000000080917B00877F80937B0080E4809397
:1002D0007C0080917A00806480937A0080917A001B
:1002E00086FDFCCF8091780090917900089596E08A
:1002F000899FD0011124A457B84F90967C936E9398
:100300005F9791E091969C939197E091F907F09116
:10031000FA079091F807992339F0309751F081113D
:1003200008C08091A8071994309719F05C968C91B9
:10033000FACF0895CF92DF92EF92FF920F931F931F
:1003400096E0899FF0011124E457F84F11A2278D00
:1003500030A12130310551F178F02230310509F416
:1003600051C02330310509F452C01F910F91FF9005
:10037000EF90DF90CF9008956623B9F361E070E0CD
:100380000E9477012FB7F894809188079091890790
:10039000A0918A07B0918B072FBF8093E4079093B9
:1003A000E507A093E607B093E707DFCF9FB7F89480
:1003B000C0908807D0908907E0908A07F0908B075B
:1003C0009FBF0091E4071091E5072091E607309167
:1003D000E707C01AD10AE20AF30A0091F607109162
:1003E000F70730E020E00C151D052E053F0550F401
:1003F00062E070E01F910F91FF90EF90DF90CF903F
:100400000C9477016111B1CF63E070E0F3CF70E03D
:1004100060E0F0CF8150823108F05AC0E82FF0E060
:100420008827EA5EFD4F8F4F0C94F40D36023A0296
:1004300028022E02320268023D02430247024D02A8
:10044000510255025B025F026802630269026D029B
:10045000809180008F778093800008958091800044
:100460008F7DF9CF80918000877FF5CF84B58F771E
:1004700084BD089584B58F7DFBCF8091B0008F77C8
:100480008093B00008958091B0008F7DF9CF809166
:1004900090008F77809390000895809190008F7DD9
:1004A000F9CF80919000877FF5CF8091A0008F7762
:1004B0008093A00008958091A0008F7DF9CF809156
:1004C000A000877FF5CF809120018F778093200156
:1004D0000895809120018F7DF9CF80912001877F41
:1004E000F5CFCF93DF93282F30E0F901E459FE4F89
:1004F0008491F901EE54FE4FD491F901EE5EFD4F67
:10050000C491CC23A1F081110E940A02EC2FF0E0EB
:10051000EE0FFF1FEE5AFE4FA591B491EC91ED2323
:1005200081E090E009F480E0DF91CF91089580E0D0
:1005300090E0FACF862F0C9471021F93CF93DF9334
:10054000282F30E0F901E459FE4F8491F901EE546F
:10055000FE4FD491F901EE5EFD4FC491CC23A9F07A
:10056000162F81110E940A02EC2FF0E0EE0FFF1F00
:10057000E850FE4FA591B4918FB7F894EC9111110A
:1005800008C0D095DE23DC938FBFDF91CF911F9100
:100590000895DE2BF8CF862F642F0C949D02CF9305
:1005A000DF9390E0FC01EE54FE4F24918E5E9D4F50
:1005B000FC0184918823C9F090E0880F991FFC0109
:1005C000E85CFE4FA591B491FC01E850FE4FC59147
:1005D000D49161110DC09FB7F8948C91209582231E
:1005E0008C938881282328839FBFDF91CF91089522
:1005F000623051F49FB7F8943C91822F8095832309
:100600008C93E8812E2BEFCF8FB7F894EC912E2BA3
:100610002C938FBFEACF4F925F926F927F928F920F
:100620009F92AF92BF92CF92DF92EF92FF920F9381
:100630001F93CF93DF9300D01F921F92CDB7DEB7E9
:100640008C012A013B01809115028830C9F08F3F4F
:1006500009F492C00F900F900F900F900F90DF91C0
:10066000CF911F910F91FF90EF90DF90CF90BF90AF
:10067000AF909F908F907F906F905F904F90089574
:10068000E8E5F2E084918D8387FDE4CF61E088E0C6
:100690000E94CF029D81992321F08D81823009F043
:1006A000D2C14801B12CA12C60E072E18AE790E050
:1006B000A50198010E94D50D29833A834B835C8361
:1006C00069017A0191E0C91AD108E108F1088FEFB8
:1006D000C816D104E104F10409F00CF483C160E40C
:1006E00072E48FE090E0A50198010E94D50D6901A8
:1006F0007A0191E0C91AD108E108F1088D818230B0
:1007000009F011C182E09FEFC916D104E104F104A0
:1007100009F00CF460C160E970ED83E090E0A501A0
:1007200098010E94D50D69017A0181E0C81AD108AB
:10073000E108F10883E09FEFC916D104E104F10458
:1007400009F00CF448C168E478EE81E090E0A5017E
:1007500098010E94D50D69017A0191E0C91AD1086A
:10076000E108F1088FEFC816D104E104F10411F09B
:100770000CF019C184E02FC188E080931502E8E5F0
:10078000F2E094919D83892F9F3F09F463CF9230CB
:1007900009F469C060F4992381F1913009F445C0EE
:1007A00087FD58CF61E088E00E94CF0276CF9D811F
:1007B000943009F49AC008F478C0953089F7109203
:1007C00020011092210180912101886080932101F4
:1007D00080912101816080932101EAE1F2E0E491BE
:1007E000F0E0EE0FFF1FE850FE4F85919491EAEB89
:1007F000F1E0E491E093FB0749CF14BC15BC84B54C
:10080000826084BD85B5816085BDEAE1F2E0E49156
:10081000F0E0EE0FFF1FE850FE4F85919491EAEB58
:10082000F1E0E491E093020831CF10928000109241
:100830008100809181008860809381008091810097
:10084000816080938100EAE1F2E0E491F0E0EE0F54
:10085000FF1FE850FE4F85919491EAEBF1E0E4919F
:10086000E093010813CF1092B0001092B100809174
:10087000B00082608093B0008091B100816080936D
:10088000B100EAE1F2E0E491F0E0EE0FFF1FE85082
:10089000FE4F85919491909300088093FF07EAEBB7
:1008A000F1E0E491E093FE07F1CE109290001092F7
:1008B00091008091910088608093910080919100D7
:1008C000816080939100EAE1F2E0E491F0E0EE0FC4
:1008D000FF1FE850FE4F85919491EAEBF1E0E4911F
:1008E000E093FD0783E08D83D1CE1092A00010929B
:1008F000A1008091A10088608093A1008091A10057
:1009000081608093A100EAE1F2E0E491F0E0EE0F73
:10091000FF1FE850FE4F85919491EAEBF1E0E491DE
:10092000E093FC07B3CE8FEFC816D104E104F104C5
:1009300009F00CF486C068E478EE81E090E0A5014F
:1009400098010E94D50D69017A0191E0C91AD10878
:10095000E108F1088D81882309F48DC18FEFC81655
:10096000D104E104F10409F00CF404CF62E17AE768
:1009700080E090E0A50194010E94D50D69017A0103
:1009800091E0C91AD108E108F1088D81882309F4A2
:1009900047C18FEFC816D104E104F10411F008F04B
:1009A00048C186E018C064E274EF80E090E0A501E1
:1009B00094010E94D50D69017A0191E0C91AD1080C
:1009C000E108F1088FEFC816D104E104F10411F039
:1009D00008F041C185E09091B100987F892B809308
:1009E000B10008C081E09D819111F5CF95B5987F48
:1009F000892B85BD2FEF3FEFA901411451046104FC
:100A0000710409F049C09D81923009F4E7C00CF0EF
:100A1000CEC0992309F4D3C0913009F01BCED092F7
:100A20008900C092880020931308309314084093E3
:100A300015085093160880916F00826080936F00B4
:100A400009CE82E0D0CFB12CA12C60E072E18AE720
:100A500090E0A50198010E94D50D69017A0181E01D
:100A6000C81AD108E108F108C114D10491E0E906DF
:100A7000F10404F591E08D81813069F58091810068
:100A8000887F892B809381002FEF3FEFA9014114CC
:100A900051046104710419F2D801AA0FBB1FA3010C
:100AA00092010E94FC0D28EE33E040E050E00E94ED
:100AB000B30DA9CF68E478EE81E090E0A50198013C
:100AC0000E94D50D69017A0181E0C81AD108E108B8
:100AD000F10893E0D0CF8D81833001F580919100B2
:100AE000887F892B809391002FEF3FEFA90141145C
:100AF00051046104710481F6D0929900C09298006B
:100B000020930B0830930C0840930D0850930E0867
:100B1000809171008260809371009CCD8D818430C2
:100B200009F58091A100887F892B8093A1002FEF88
:100B30003FEFA901411451046104710409F0ACCFE5
:100B4000D092A900C092A80020930708309308080B
:100B50004093090850930A08809172008260809344
:100B6000720078CD8D81853009F044CF80912101CC
:100B7000887F892B809321012FEF3FEFA90141143A
:100B800051046104710409F087CFD0922901C09209
:100B900028012093030830930408409305085093DC
:100BA00006088091730082608093730053CD8D811D
:100BB000843031F20CF4A0CF853039F34BCDC7BC73
:100BC00020931708309318084093190850931A0877
:100BD00080916E00826080936E003CCDC092B30025
:100BE00020930F0830931008409311085093120877
:100BF000809170008260809370002CCDC980DA8073
:100C0000EB80FC809AE0F594E794D794C7949A958A
:100C1000D1F791E0C91AD108E108F10885E0E6CEE4
:100C20008FEFC816D104E104F10409F038F784E02D
:100C3000DDCEC980DA80EB80FC808AE0F594E79411
:100C4000D794C7948A95D1F791E0C91AD108E108E1
:100C5000F10887E0C0CE62E17AE780E090E0A5018C
:100C600094010E94D50D69017A0191E0C91AD10859
:100C7000E108F1088ECE83E09FEFC916D104E104AC
:100C8000F10411F00CF072CEB1CE862F642F0C94CB
:100C9000CF023FB7F8948091830790918407A09189
:100CA0008507B091860726B5A89B05C02F3F19F090
:100CB0000196A11DB11D3FBFBA2FA92F982F8827DC
:100CC000BC01CD01620F711D811D911D42E0660FB7
:100CD000771F881F991F4A95D1F708958F929F9289
:100CE000AF92BF92CF92DF92EF92FF926B017C01A5
:100CF0000E9449064B015C01C114D104E104F104D6
:100D0000B9F00E944906681979098A099B09683E69
:100D100073408105910580F321E0C21AD108E108F2
:100D2000F10888EE880E83E0981EA11CB11CE4CF68
:100D3000FF90EF90DF90CF90BF90AF909F908F90FB
:100D400008951F920F920FB60F9211240BB60F92B7
:100D50002F933F934F935F936F937F938F939F93C3
:100D6000AF93BF93EF93FF9380910F08909110087A
:100D7000A0911108B0911208892B8A2B8B2BE1F1DD
:100D80009091FE07E091FF07F0910008808189278C
:100D9000808380910F0890911008A0911108B09164
:100DA0001208181619061A061B069CF480910F08E3
:100DB00090911008A0911108B09112080197A10913
:100DC000B10980930F0890931008A0931108B09375
:100DD0001208FF91EF91BF91AF919F918F917F91F9
:100DE0006F915F914F913F912F910F900BBE0F909C
:100DF0000FBE0F901F90189580911502E8E5F2E064
:100E0000E4919FEF90931502E230E9F040F4EE2375
:100E100089F0E13091F060E00E949D02DACFE43089
:100E200049F110F1E530B9F7909173009D7F9093EF
:100E30007300F1CF10926E00EECF90916F009D7F06
:100E400090936F00E8CF909170009D7F9093700019
:100E500091E09093B0009091B100987F946090934E
:100E6000B1001092B300D7CF909171009D7F909305
:100E70007100D1CF909172009D7F90937200CBCF83
:100E80001F920F920FB60F9211242F933F938F93BF
:100E90009F93AF93BF938091880790918907A0910A
:100EA0008A07B0918B073091820723E0230F2D37FB
:100EB00058F50196A11DB11D2093820780938807E4
:100EC00090938907A0938A07B0938B07809183073B
:100ED00090918407A0918507B09186070196A11D86
:100EE000B11D8093830790938407A0938507B093E7
:100EF0008607BF91AF919F918F913F912F910F9056
:100F00000FBE0F901F90189526E8230F0296A11D83
:100F1000B11DD2CF789484B5826084BD84B58160E0
:100F200084BD85B5826085BD85B5816085BD8091B4
:100F30006E00816080936E0010928100809181002C
:100F40008260809381008091810081608093810024
:100F5000809180008160809380008091B1008460E6
:100F60008093B1008091B00081608093B000809147
:100F700091008260809391008091910081608093C4
:100F80009100809190008160809390008091A100F9
:100F900082608093A1008091A10081608093A10074
:100FA0008091A00081608093A000809121018260E7
:100FB00080932101809121018160809321018091A2
:100FC000200181608093200180917A008460809369
:100FD0007A0080917A00826080937A0080917A0012
:100FE000816080937A0080917A00806880937A0093
:100FF0001092C10062E080E00E94CF0280E00E9477
:10100000710221E0019709F420E02093870721E095
:101010002093F8078FB7F89440918807509189077B
:1010200060918A0770918B078FBF8091E80790913C
:10103000E907A091EA07B091EB07481B590B6A0B2F
:101040007B0B8091F4079091F507B0E0A0E0841746
:101050009507A607B70708F086C1C0E08091F207A0
:10106000C81760F4E091EE07F091EF07EC0FF11D67
:1010700062E080810E94CF02CF5FF0CFB12C8091DF
:10108000F307B81608F061C00B2D10E0E091F007EF
:10109000F091F107E00FF11F61E080810E94CF0223
:1010A000E091F007F091F107E00FF11F60E080811F
:1010B0000E949D0281E090E0A0E0B0E00B2C04C013
:1010C000880F991FAA1FBB1F0A94D2F76C017C01DD
:1010D000E094F094A12C8091F207A816F8F4CA2DA0
:1010E000D0E0E091EE07F091EF07EC0FFD1F80815B
:1010F0000E9471022496CC0FDD1FC457D84F892B54
:1011000041F4888199818C299D2999838883A394AE
:10111000E2CF888199818E219F21F7CFE091F0075E
:10112000F091F107E00FF11F61E080810E949D02C4
:101130008091F0079091F107080F191F60E0F80106
:1011400080810E94CF02B3949ACF0CE817E0F80197
:10115000878D90A1892B31F4148E8FEF9FEF968F9E
:10116000858F11A2369697E0E83CF90789F7F12CB4
:101170008091F207F81608F050C0E12CCF2DD0E096
:10118000CC0FDD1FCC56D84F2091F307E21608F0A4
:1011900042C0688179810E2C02C0769567950A94C9
:1011A000E2F7F29E900111242E0D311DECE8F7E0DC
:1011B00080E0458D568D2417350709F4E3C28F5F13
:1011C00036968A30B1F760FF24C0ECE8F7E090E093
:1011D00080E0448D411118C0E091EC07F091ED07DB
:1011E000E20FF31F408156E0589FF001599FF00D28
:1011F0001124E457F84F448F368F258F10A2178E95
:1012000061E00E949A0105C0019636968A309105E8
:1012100001F7E394B9CFF394ABCF80E0F80191A14B
:101220009111892F0A5F1F4FF7E0083C1F07B1F7A4
:101230009FB7F894409188075091890760918A0779
:1012400070918B079FBF4093E8075093E907609325
:10125000EA077093EB07882309F485C08091AD07F6
:10126000882309F480C08091AB079091AC0781304E
:10127000910509F078C02091A807211177C08091CD
:101280008707882309F467C08091130290911402A4
:101290008130910509F08EC0D0EEED2ED6E0FD2E06
:1012A0001EE3C12E16E0D12E02ED302E92E8E91693
:1012B00097E0F90609F44FC00E9461018C01F70123
:1012C000819191917F01389EB001399E700D11245A
:1012D000072E000C880B990B0E94BA0C9B01AC01E5
:1012E00060E070E68AEE97E40E94100C0E94820C87
:1012F0004B01770FAA08BB08F601C191D1916F018C
:10130000B801110F880B990B0E94BA0C20E030E055
:1013100040E05BE30E94460D2B013C01BE01DD0F66
:10132000880B990B0E94BA0C9B01AC01C301B2015E
:101330000E94460D0E94820CCB01B501A4010E94BF
:101340000B03C501B4010E946E0680E00E94710289
:10135000892B09F4ABCF80E090E0892B09F44ECEC5
:101360000E9400004BCE1092F80789CF2333A9F0DA
:1013700064F4213329F082E090E0223309F07FCF3A
:1013800090931402809313027ACF253381F064F096
:1013900086E090E02633A1F372CFE3E0F0E0F09333
:1013A0001402E09313026BCF84E090E0E9CFE5E014
:1013B000F0E0F5CF8230910509F05DC0A6EDEA2E90
:1013C000A5E0FA2EB2EACB2EB5E0DB2ECEE32C2E32
:1013D000C6E03C2E2E143F0409F4BDCF0E946101EB
:1013E0008C01F70161917191819191917F0120E0D0
:1013F00030E042E553E40E94460D9B01AC0160E001
:1014000070E68AEE97E40E94100C0E94820C4B0159
:10141000770FAA08BB08F601C191D1916F01B801FD
:10142000110F880B990B0E94BA0C20E030E040E0CD
:101430005BE30E94460D2B013C01BE01DD0F880BD2
:10144000990B0E94BA0C9B01AC01C301B2010E942E
:10145000460D0E94820CCB01B501A4010E940B0332
:10146000C501B4010E946E0680E00E947102892BC2
:1014700009F4B0CF70CF8330910509F05BC0E6EE80
:10148000EE2EE4E0FE2EF8E8CF2EF4E0DF2EF2EAB6
:10149000EF16F5E0FF0609F45ECF0E9461018C01B2
:1014A000F70161917191819191917F0120E030E08C
:1014B00046E153E40E94460D9B01AC0160E070E6FA
:1014C0008AEE97E40E94100C0E94820C4B01770F69
:1014D000AA08BB08F601C191D1916F01B801110FA3
:1014E000880B990B0E94BA0C20E030E040E05BE3EF
:1014F0000E94460D2B013C01BE01DD0F880B990BAC
:101500000E94BA0C9B01AC01C301B2010E94460DBE
:101510000E94820CCB01B501A4010E940B03C501FE
:10152000B4010E946E0680E00E947102892B09F4CA
:10153000AECF11CF8430910509F05BC068EDE62E87
:1015400063E0F62E70E8C72E73E0D72EF8E8EF16AA
:10155000F4E0FF0609F4FFCE0E9461018C01F7015F
:1015600061917191819191917F0120E030E046E19C
:1015700053E40E94460D9B01AC0160E070E68AEEE8
:1015800097E40E94100C0E94820C4B01770FAA086E
:10159000BB08F601C191D1916F01B801110F880B01
:1015A000990B0E94BA0C20E030E040E05BE30E941F
:1015B000460D2B013C01BE01DD0F880B990B0E94EB
:1015C000BA0C9B01AC01C301B2010E94460D0E94FE
:1015D000820CCB01B501A4010E940B03C501B4012B
:1015E0000E946E0680E00E947102892B09F4AECF42
:1015F000B2CE8530910509F061C030E4E32E33E0CE
:10160000F32E40E0C42E43E0D42E50E8252E53E0C4
:10161000352E2E143F0409F49ECE0E9461018C01E8
:10162000F701819191917F01F7E8F89FB001F99F4F
:10163000700D1124072E000C880B990B0E94BA0C18
:101640009B01AC0160E070E68AEE97E40E94100C0A
:101650000E94820C4B01770FAA08BB08F601C191CA
:10166000D1916F01B801110F880B990B0E94BA0C30
:1016700020E030E040E05BE30E94460D2B013C019E
:10168000BE01DD0F880B990B0E94BA0C9B01AC01C7
:10169000C301B2010E94460D0E94820CCB01B5012C
:1016A000A4010E940B03C501B4010E946E0680E0F4
:1016B0000E947102892B09F4ACCF4DCE069709F038
:1016C0004ACE80E9E82E82E0F82E90E2C92E92E020
:1016D000D92E20E0222E23E0322E2E143F0409F4CE
:1016E0003ACE0E9461018C01F701819191917F01B5
:1016F000F6E9F89FB001F99F700D1124072E000C38
:10170000880B990B0E94BA0C9B01AC0160E070E65B
:101710008AEE97E40E94100C0E94820C4B01770F16
:10172000AA08BB08F601C191D1916F01B801110F50
:10173000880B990B0E94BA0C20E030E040E05BE39C
:101740000E94460D2B013C01BE01DD0F880B990B59
:101750000E94BA0C9B01AC01C301B2010E94460D6C
:101760000E94820CCB01B501A4010E940B03C501AC
:10177000B4010E946E0680E00E947102892B09F478
:10178000ACCFE9CD61703DCD10928E0710929207DB
:1017900010929107109293078AE192E090938D073F
:1017A00080938C07E8EAF7E0108214821382158296
:1017B000369687E0E43EF807B9F783E092E090932D
:1017C000EF078093EE0780E092E09093F10780931B
:1017D000F00784E08093F20783E08093F30787E0CB
:1017E00092E09093ED078093EC078AE090E090936D
:1017F000F5078093F40784EF91E09093F7078093C7
:10180000F6071092FA071092F9071092E807109263
:10181000E9071092EA071092EB071092F807089573
:101820000E94240C0C940C0D0E94050D58F00E948F
:10183000FE0C40F029F45F3F29F00C94F50C511197
:101840000C94400D0C94FB0C0E941D0D68F3992321
:10185000B1F3552391F3951B550BBB27AA276217AC
:101860007307840738F09F5F5F4F220F331F441FB9
:10187000AA1FA9F335D00E2E3AF0E0E832D09150ED
:101880005040E695001CCAF72BD0FE2F29D0660FDA
:10189000771F881FBB1F261737074807AB07B0E81D
:1018A00009F0BB0B802DBF01FF2793585F4F3AF023
:1018B0009E3F510578F00C94F50C0C94400D5F3F61
:1018C000E4F3983ED4F3869577956795B795F795A9
:1018D0009F5FC9F7880F911D9695879597F9089591
:1018E000E1E0660F771F881FBB1F6217730784072D
:1018F000BA0720F0621B730B840BBA0BEE1F88F73C
:10190000E09508950E94890C6894B1110C94400DE3
:1019100008950E94250D88F09F5798F0B92F9927B8
:10192000B751B0F0E1F0660F771F881F991F1AF0CA
:10193000BA95C9F714C0B13091F00E943F0DB1E0E3
:1019400008950C943F0D672F782F8827B85F39F0E2
:10195000B93FCCF3869577956795B395D9F73EF463
:1019600090958095709561957F4F8F4F9F4F08950B
:10197000E89409C097FB3EF4909580957095619529
:101980007F4F8F4F9F4F9923A9F0F92F96E9BB27DF
:101990009395F695879577956795B795F111F8CF5B
:1019A000FAF4BB0F11F460FF1BC06F5F7F4F8F4FC6
:1019B0009F4F16C0882311F096E911C0772321F0BC
:1019C0009EE8872F762F05C0662371F096E8862F54
:1019D00070E060E02AF09A95660F771F881FDAF7AB
:1019E000880F9695879597F9089597F99F6780E8EE
:1019F00070E060E008959FEF80EC089500240A9461
:101A00001616170618060906089500240A941216D9
:101A10001306140605060895092E0394000C11F40C
:101A2000882352F0BB0F40F4BF2B11F460FF04C0B9
:101A30006F5F7F4F8F4F9F4F089557FD9058440F12
:101A4000551F59F05F3F71F04795880F97FB991F1D
:101A500061F09F3F79F087950895121613061406DA
:101A6000551FF2CF4695F1DF08C016161706180667
:101A7000991FF1CF86957105610508940895E89442
:101A8000BB2766277727CB0197F908950E94590D48
:101A90000C940C0D0E94FE0C38F00E94050D20F0F5
:101AA000952311F00C94F50C0C94FB0C11240C9460
:101AB000400D0E941D0D70F3959FC1F3950F50E0EE
:101AC000551F629FF001729FBB27F00DB11D639FF0
:101AD000AA27F00DB11DAA1F649F6627B00DA11D96
:101AE000661F829F2227B00DA11D621F739FB00D3C
:101AF000A11D621F839FA00D611D221F749F3327AC
:101B0000A00D611D231F849F600D211D822F762F44
:101B10006A2F11249F5750409AF0F1F088234AF021
:101B2000EE0FFF1FBB1F661F771F881F915050408D
:101B3000A9F79E3F510580F00C94F50C0C94400DD4
:101B40005F3FE4F3983ED4F3869577956795B79514
:101B5000F795E7959F5FC1F7FE2B880F911D96952E
:101B6000879597F90895A1E21A2EAA1BBB1BFD01C8
:101B70000DC0AA1FBB1FEE1FFF1FA217B307E4076C
:101B8000F50720F0A21BB30BE40BF50B661F771FC4
:101B9000881F991F1A9469F76095709580959095A4
:101BA0009B01AC01BD01CF010895052E97FB1EF4EA
:101BB00000940E94EC0D57FD07D00E94B30D07FC66
:101BC00003D04EF40C94EC0D509540953095219532
:101BD0003F4F4F4F5F4F0895909580957095619559
:101BE0007F4F8F4F9F4F0895EE0FFF1F881F8BBFB2
:101BF0000790F691E02D19940E94070EA59F900D75
:101C0000B49F900DA49F800D911D11240895A29F53
:101C1000B001B39FC001A39F700D811D1124911DC0
:101C2000B29F700D811D1124911D0895F894FFCF6E
:101C300017191B1D1F2123313233343536373839FC
:101C40002A30230100FF000000004506CB029A0263
:101C500006010B02DC00B801E900D201000000001F
:101C600006010B02DC00B801E900D201000000000F
:101C7000AF005D01930026019C00370100000000C9
:101C8000AF005D01930026019C00370100000000B9
:101C9000370115012601150137013701D000C400B5
:101CA0001501060172015D01A500D201B8019F0175
:101CB0003701F700E900DC00D00000000000000060
:101CC0000C000C000C000C000C000C0006000300C3
:101CD0000C000C000C000C000C000C0006000300B3
:101CE0000C000C000C000C000C000C0006000300A3
:101CF0000C000C000C000C000C000C000600060090
:101D0000120012001200060006000600060006007F
:101D100006001200120012001200120012000A0047
:101D20000A000A000A000A000A0003000300030078
:101D300088017003DC03880188017003DC038801DB
:101D4000DC030B024B02DC030B024B024B0293023F
:101D50004B020B02DC0388014B0293024B020B0285
:101D6000DC03880188012601880188012601880199
:101D70000400040004000400040004000400040043
:101D8000040004000200040004000200080008002F
:101D9000080008000400040008000800080008000B
:101DA0000400040004000400020004000400020017
:101DB0008801880188013701A40388013701A40341
:101DC00088014B024B024B026E02A40372013701E1
:101DD000A40388011003880188011003E402BA02F9
:101DE00093026E026E0200009F012A020B02DC03C6
:101DF000A4037003A40300003701720137017201CC
:101E0000A4038801A4034B0200008040000080402E
:101E100000008040ABAAAA40000080410000804042
:101E2000ABAAAA40000080410000004000008040B2
:101E30000000804000008040ABAAAA400000804122
:101E400000008040ABAAAA40000080410000004092
:101E500000008040ABAAAA40000080410000804002
:101E6000ABAAAA40000080410000804100008041F0
:101E700000000041000000410000004100008040DF
:101E8000ABAAAA40000080410000804100008041D0
:101E900000000041000000410000004100008040BF
:101EA000ABAAAA400000804100008040ABAAAA4033
:101EB00000008041000000404A014A015D018801A4
:101EC00088015D014A0126010601060126014A0139
:101ED0004A01260126014A014A015D018801880163
:101EE0005D014A0126010601060126014A0126017B
:101EF00006010601260126014A01060126014A01C2
:101F00005D014A01060126014A015D014A012601DF
:101F10000601260100000000804000008040000013
:101F200080400000804000008040000080400000B1
:101F300080400000804000008040000080400000A1
:101F4000804000008040ABAA2A4000000041000011
:101F50000040000080400000804000008040000001
:101F60008040000080400000804000008040000071
:101F70008040000080400000804000008040000061
:101F80008040ABAA2A400000004100000040000051
:101F90008040000080400000804000008040000041
:101FA000804000000041000000410000804000002F
:101FB000804000008040000000410000004100001F
:101FC0008040000080400000804000008040000011
:101FD00000404A014A014A014A014A014A014A01B4
:101FE0008801060126014A015D015D015D015D0177
:101FF0005D014A014A014A014A014A0126012601BE
:102000004A01260188010000804000008040000055
:1020100000400000804000008040000000400000C0
:10202000804000008040ABAA2A4000000041000030
:10203000803F0000804000008040ABAA2A400000A2
:10204000004100008040000080400000804000000F
:10205000004100000041000080400000804000007E
:102060008040000080400000004000000040260149
:10207000B801B801B80126012601B801B801B801BC
:102080002601B801D2010B02B8014B020B020B0270
:10209000D201D201B801B80188015D0188010B02AB
:1020A000B8012601060126014A015D014A015D01D0
:1020B0008801B8010B02D201B80188015D014A0113
:1020C00026010601880188018801B801D201B80102
:1020D00088015D018801B80188015D014A015D0147
:1020E00088015D014A012601D201B801B8018801C9
:1020F00088015D015D014A01B801880188015D0127
:102100005D014A014A0126015D015D018801B801B6
:10211000040008000800040004000400080008008F
:102120000400040004000800080002000800080081
:102130000800080008000800080008000400080063
:102140000800020008000800080008000800080055
:10215000080008000800080008000800080008003F
:10216000080008000400080008000400040004003F
:10217000080008000400040004000800080004002F
:10218000040004000800080002000800080008001D
:1021900008000800080008000800080008000800FF
:1021A00008000800080008000800040008000800F3
:0221B00002002B
:00000001FF
